:100000000C94C8010C94F0010C94F0010C94F001D4
:100010000C94F0010C94F0010C94F0010C94F0019C
:100020000C94F0010C94F0010C94F0010C94F0018C
:100030000C94F0010C94F0010C94F0010C94F0017C
:100040000C9422040C94F0010C9453030C942D0393
:100050000C94F0010C94F0010C94F0010C94F0015C
:100060000C94F0010C94F00150415F4D4158005048
:10007000415F484947480050415F4C4F570050414D
:100080005F4D494E0031362062697473003820623A
:100090006974730044697361626C6564006E5246F2
:1000A00032344C30312B006E524632344C303100F9
:1000B0003235304B42505300324D42505300314D97
:1000C000425053005354415455530909203D2030A8
:1000D00078253032782052585F44523D257820549C
:1000E000585F44533D2578204D41585F52543D257B
:1000F000782052585F505F4E4F3D25782054585F0E
:1001000046554C4C3D25780D0A00504120506F77E4
:10011000657209203D2025530D0A007E0077006F8F
:10012000006800435243204C656E67746809203DA7
:100130002025530D0A0094008D0085004D6F6465E5
:100140006C0909203D2025530D0A00A7009D00449D
:10015000617461205261746509203D2025530D0AA8
:1001600000BE00B800B00044594E50442F464541EF
:100170005455524500434F4E464947090052465F89
:1001800053455455500052465F43480900454E5F61
:1001900052584144445200454E5F41410900525873
:1001A0005F50575F50302D360054585F41444452E1
:1001B000090052585F414444525F50322D3500527D
:1001C000585F414444525F50302D31000000000818
:1001D000000201000003040700000000000000000E
:1001E0002A2A2A2050524553532027542720746F1F
:1001F00020626567696E207472616E736D697474D4
:10020000696E6720746F20746865206F746865720A
:10021000206E6F646500524632342F6578616D70D0
:100220006C65732F47657474696E6753746172747B
:100230006564002A2A2A204348414E47494E4720F8
:10024000544F205245434549564520524F4C452076
:100250002D2D2050524553532027542720544F20F2
:10026000535749544348204241434B002A2A2A20ED
:100270004348414E47494E4720544F205452414E27
:10028000534D495420524F4C45202D2D205052455E
:1002900053532027522720544F2053574954434843
:1002A000204241434B0053656E7420726573706F3A
:1002B0006E73652000206D6963726F7365636F6E86
:1002C0006473002C20526F756E642D7472697020F7
:1002D00064656C617920002C20476F74207265730F
:1002E000706F6E7365200053656E742000466169FF
:1002F0006C65642C20726573706F6E736520746911
:100300006D6564206F75742E006661696C656400AC
:100310004E6F772073656E64696E670000000000A1
:10032000250028002B0000000000240027002A00E0
:10033000040404040404040402020202020203038B
:100340000303030301020408102040800102040893
:1003500010200102040810201112131415160A0BA4
:100360000C0D0E0F0001020304050D0A00253032AA
:10037000780020307800255309203D000D0A002028
:1003800030782530327800255309203D0000A20B3B
:1003900011241FBECFEFD8E0DEBFCDBF11E0A0E03B
:1003A000B1E0EEE3F1E202C005900D92A439B1078D
:1003B000D9F722E0A4E9B1E001C01D92A236B2074C
:1003C000E1F711E0C8ECD1E004C02197FE010E94E2
:1003D0008A10C73CD107C9F70E94CF090C949D1021
:1003E0000C940000CF92DF92EF92FF920F931F9335
:1003F000CF93DF936C017A018B01C0E0D0E0CE1582
:10040000DF0589F0D8016D918D01D601ED91FC9148
:100410000190F081E02DC6010995892B11F47E0130
:1004200002C02196ECCFC701DF91CF911F910F91B0
:10043000FF90EF90DF90CF900895089580E090E0D6
:100440000895FC01538D448D252F30E0842F90E0DA
:10045000821B930B541710F0CF96089501970895BF
:10046000FC01918D828D981761F0828DDF01A80FBC
:10047000B11D5D968C91928D9F5F9F73928F90E0DE
:1004800008958FEF9FEF0895FC01918D828D98174D
:1004900031F0828DE80FF11D858D90E008958FEF8A
:1004A0009FEF0895FC01918D228D892F90E0805C53
:1004B0009F4F821B91098F73992708958FE991E0CF
:1004C0000E94520221E0892B09F420E0822F089536
:1004D000FC01848DDF01A80FB11DA35ABF4F2C91E1
:1004E000848D90E001968F739927848FA689B789B0
:1004F0002C93A089B1898C9180648C93938D848D89
:10050000981306C00288F389E02D80818F7D808357
:100510000895EF92FF920F931F93CF93DF93EC0117
:1005200081E0888F9B8D8C8D981305C0E889F989AF
:10053000808185FD24C0F62E0B8D10E00F5F1F4FCC
:100540000F731127E02E8C8DE8120CC00FB607FC3C
:10055000FACFE889F989808185FFF5CFCE010E9425
:100560006802F1CF8B8DFE01E80FF11DE35AFF4FBA
:10057000F0820B8FEA89FB898081806207C0EE8957
:10058000FF896083E889F98980818064808381E0C4
:1005900090E0DF91CF911F910F91FF90EF90089520
:1005A000CF93DF93EC01888D8823C9F0EA89FB891A
:1005B000808185FD05C0A889B9898C9186FD0FC011
:1005C0000FB607FCF5CF808185FFF2CFA889B989E6
:1005D0008C9185FFEDCFCE010E946802E7CFDF91BD
:1005E000CF91089580E090E0892B29F00E945E026F
:1005F00081110C94000008953FB7F89480919A01FE
:1006000090919B01A0919C01B0919D0126B5A89B62
:1006100005C02F3F19F00196A11DB11D3FBFBA2F94
:10062000A92F982F8827820F911DA11DB11DBC01F4
:10063000CD0142E0660F771F881F991F4A95D1F7B9
:100640000895CF93C82F682F8FE991E00E94890207
:100650008C2FCC0F990BCF9108951F920F920FB64C
:100660000F9211242F933F934F935F936F937F9338
:100670008F939F93AF93BF93EF93FF938FE991E095
:100680000E946802FF91EF91BF91AF919F918F916E
:100690007F916F915F914F913F912F910F900FBE7E
:1006A0000F901F9018951F920F920FB60F92112462
:1006B0002F938F939F93EF93FF93E091AF01F0916E
:1006C000B0018081E091B501F091B60182FD12C0C8
:1006D00090818091B8018F5F8F732091B90182174B
:1006E00051F0E091B801F0E0E156FE4F958F809314
:1006F000B80101C08081FF91EF919F918F912F915F
:100700000F900FBE0F901F90189590E0FC01E453DE
:10071000FE4F3491FC01EC5BFC4F2491FC01E05D49
:10072000FC4FE491EE2309F43BC0332339F133301D
:1007300091F038F43130A9F0323001F584B58F7D75
:1007400012C0373091F03830A1F03430B9F48091D4
:1007500080008F7D03C0809180008F778093800020
:100760000DC084B58F7784BD09C08091B0008F77AC
:1007700003C08091B0008F7D8093B000F0E0EE0F59
:10078000FF1FE45EFC4FA591B4918FB7F894EC91F4
:10079000611103C020952E2301C02E2B2C938FBFF7
:1007A00008958230910538F0880F991F880F991F9E
:1007B00005970197F1F708958F929F92AF92BF929C
:1007C000CF92DF92EF92FF926B017C010E94FC02BC
:1007D0004B015C01C114D104E104F104F1F00E9469
:1007E000FC02DC01CB0188199909AA09BB09883EE2
:1007F0009340A105B10570F321E0C21AD108E108C8
:10080000F10888EE880E83E0981EA11CB11CC1146B
:10081000D104E104F10419F7DDCFFF90EF90DF90F0
:10082000CF90BF90AF909F908F9008952FB7F8947E
:100830006091960170919701809198019091990132
:100840002FBF08951F920F920FB60F9211242F936E
:100850003F938F939F93AF93BF9380919601909115
:100860009701A0919801B09199013091950123E0F1
:10087000230F2D3720F40196A11DB11D05C026E8D8
:10088000230F0296A11DB11D20939501809396011F
:1008900090939701A0939801B093990180919A0148
:1008A00090919B01A0919C01B0919D010196A11D89
:1008B000B11D80939A0190939B01A0939C01B093EA
:1008C0009D01BF91AF919F918F913F912F910F907B
:1008D0000FBE0F901F9018958EBD00000DB407FE3F
:1008E000FDCF8EB50895CF93809140029091410243
:1008F00020914202309143028217930711F00E9427
:100900003B08809142029091430220914002309135
:1009100041022817390711F00E943B08CFB7F8941D
:1009200080919401811124C0EAE3F3E08491EEE424
:10093000F3E09491E82FF0E0EE0FFF1FEA5DFC4F2B
:10094000A591B491EC91E92321F461E08AE00E9441
:1009500085038AE00E943B088CB580618CBD8CB514
:1009600080648CBD8DE00E943B088BE00E943B08B8
:10097000809194018F5F80939401CFBF80E00E94AB
:10098000A70781E00E942E0665E070E080E090E01D
:100990000E94DC036CE080E00E948A076FE584E03F
:1009A0000E948A0786E00E947E06877DC82FC0626B
:1009B0008BE990E0A0E0B0E0809350029093510268
:1009C000A0935202B09353026C2F86E00E948A07D4
:1009D00086E00E947E068C1709F43AC186E00E94E8
:1009E0007E0686E00E947E0645E550E060E070E00D
:1009F00040935002509351026093520270935302FD
:100A0000682F677D86E00E948A0786E00E947E0646
:100A10000E944B0680E50E946C0483E70E946C04F0
:100A20000E94480660E08DE10E948A0760E08CE148
:100A30000E948A071092480260E787E00E948A07B6
:100A40006CE485E00E948A0782EE0E9474070E948F
:100A500087070E94B70780E00E947E06682F6E7F9E
:100A600080E00E948A0786E00E947E06887F682FC9
:100A7000636086E00E948A0786E091E00E94220877
:100A800080E091E00E94FE070E94C8078FEF0E945D
:100A90007407282F30E0982F91701F929F933595FF
:100AA0002795277033273F932F9384FB992790F93D
:100AB0001F929F9385FB992790F91F929F9386FB26
:100AC000992790F91F929F931F928F9384EC90E047
:100AD0009F938F930E943D0C42E06AE08FEB91E080
:100AE0000E94D40644E06CE082EB91E00E949506FF
:100AF00041E060E189EA91E00E94D40646E061E1CC
:100B00008EE991E00E94950641E061E087E991E07D
:100B10000E94950641E062E08DE891E00E94950612
:100B200041E065E086E891E00E94950641E066E0DC
:100B30008DE791E00E94950641E060E085E791E055
:100B40000E94950642E06CE187E691E00E949506DE
:100B500086E00E947E0688722DB73EB7225F3F4F27
:100B60000FB6F8943EBF0FBE2DBF803241F021E09A
:100B700090E0883009F020E0E22FF92F02C0E2E097
:100B8000F0E0EE0FFF1FEF59FE4F859194919F9378
:100B90008F938FE491E09F938F930E943D0CE0919F
:100BA0004602F0E0EE0FFF1FE55BFE4F859194914A
:100BB0009F938F938CE391E09F938F930E943D0CC2
:100BC00080E00E947E06C82F81E00E947E062DB73D
:100BD0003EB7285F3F4F0FB6F8943EBF0FBE2DBF04
:100BE000C3FD02C0882329F0C2FD06C0E1E0F0E0A9
:100BF00005C0E0E0F0E002C0E2E0F0E0EE0FFF1F31
:100C0000EA5CFE4F859194919F938F9383E291E0EC
:100C10009F938F930E943D0C86E00E947E06867013
:100C2000E82FF0E0E55EFE4F859194919F938F93BE
:100C30008AE091E09F938F930E943D0C8DB79EB701
:100C400008960FB6F8949EBF0FBE8DBFCF91089542
:100C500081E080934602C2CE0E949010CF93DF9332
:100C60009CB59F7D9CBD9CB5937F9CBD9CB59C7F96
:100C70009CBD9DB591609DBDC0E4D2E0682F8A8186
:100C80000E9485038C899D89DF91CF910C94D103BB
:100C900081E00C942E0680E00C942E06EF92FF92D9
:100CA0000F931F93CF93DF9300D01F92CDB7DEB782
:100CB000162F4A837B8389830E944B0689818F711B
:100CC00080620E946C04082FE12E7B81F72E4A81FE
:100CD000140F1E1531F0F70181917F010E946C0401
:100CE000F8CF0E944806802F0F900F900F90DF9151
:100CF000CF911F910F91FF90EF900895CF93DF93C5
:100D00001F92CDB7DEB789830E944B0689818F7110
:100D10000E946C048FEF0E946C0489830E94480635
:100D200089810F90DF91CF910895EF92FF920F93F9
:100D30001F93CF93DF931F92CDB7DEB7E42E9F931F
:100D40008F9387E893E09F938F9369830E943D0C74
:100D50006981E60E0F900F900F900F900FE713E050
:100D60006E1591F0FF24F394F60E862F0E947E06F6
:100D70001F928F931F930F930E943D0C0F900F9023
:100D80000F900F906F2DECCF8CE793E09F938F9394
:100D90000E943D0C0F900F900F90DF91CF911F910B
:100DA0000F91FF90EF9008952F923F924F925F9294
:100DB0006F927F928F929F92AF92BF92CF92DF926B
:100DC000EF92FF920F931F93CF93DF931F92CDB7B4
:100DD000DEB7562E342E6DB67EB69F938F9386E780
:100DE00093E09F938F930E943D0C350C0F900F90D2
:100DF0000F900F9082E7C82E83E0D82E9DE6A92E93
:100E000093E0B92E531409F44EC08DB69EB690915E
:100E10004E02092F10E02DB73EB7201B310B0FB645
:100E2000F8943EBF0FBE2DBFEDB7FEB731967F01E0
:100E300022242394250C99830E944B06852D8F71C3
:100E40000E946C04270199819E0D941549F08FEF43
:100E500099830E946C04F20181932F019981F5CF4F
:100E60000E944806DF92CF920E943D0C0E0D1F1D7E
:100E70000F900F90015011090E151F0568F0F80131
:100E800080811F928F93BF92AF920E943D0C0F9072
:100E90000F900F900F90EECF0FB6F8949EBE0FBE3E
:100EA0008DBE522CAFCF8AE693E09F938F930E9422
:100EB0003D0C0F900F900FB6F8947EBE0FBE6DBE26
:100EC0000F90DF91CF911F910F91FF90EF90DF90E6
:100ED000CF90BF90AF909F908F907F906F905F90DA
:100EE0004F903F902F900895CF93DF931F92CDB7EF
:100EF000DEB789830E944B0689810E946C04898336
:100F00000E94480689810F90DF91CF91089581EE6C
:100F10000C9474071F93CF93DF9300D0CDB7DEB747
:100F20006A8389830E944B0689818F7180620E9447
:100F30006C04182F6A81862F0E946C040E94480658
:100F4000812F0F900F90DF91CF911F9108952091E5
:100F500040023091410240914202509143022417D5
:100F6000350721F0682F822F0C948503089580E0C7
:100F70000E947E0681FD0BC0682F626080E00E94A7
:100F80008A0765E070E080E090E00C94DC0308954F
:100F90000E94B70780E00E947E06682F616080E0B3
:100FA0000E948A0760E787E00E948A0781E00E942A
:100FB000A70780914902882341F040914E0269E4DD
:100FC00072E08AE00E944E0612C082E00E947E0615
:100FD000E4E6F3E0E49121E030E001C0220FEA957D
:100FE000EAF72095622F682382E00E948A078DE14C
:100FF0000E947E0681FD0C9487070895CF93DF93AE
:10100000EFE5F3E0E491C0E4D2E04E85BC018E2F21
:101010000E944E06E9E5F3E084916F810E948A0701
:1010200082E00E947E06E5E6F3E0E49161E070E094
:1010300001C0660FEA95EAF7682B82E0DF91CF9155
:101040000C948A070F931F93CF93DF938C01C0E416
:10105000D2E04E85BC018AE00E944E064E85B80162
:1010600080E10E944E066F8181E1DF91CF911F9157
:101070000F910C948A0790E0FC01EC5BFC4F2491EB
:10108000FC01E05DFC4F8491882399F090E0880F8B
:10109000991FFC01EA5DFC4FA591B491FC01E45E4F
:1010A000FC4F859194918FB7F894EC91E22BEC93DF
:1010B0008FBF0895009769F0FC0101900020E9F7C7
:1010C0003197AF01481B590BBC018FE991E00C949B
:1010D000F20180E090E008950F931F93CF93DF9388
:1010E0008C01C0E0D0E0F801EC0FFD1F6491662395
:1010F00071F0E0919F01F091A0010190F081E02D4D
:101100008FE991E00995892B11F02196ECCFCE0162
:10111000DF91CF911F910F910895CF93DF930E949C
:101120006C08EC018EE691E00E945A088C0F9D1F1E
:10113000DF91CF9108958F929F92AF92BF920F93BC
:101140001F93CF93DF93CDB7DEB7A1970FB6F89477
:10115000DEBF0FBECDBF19A2423008F44AE08E01B7
:101160000F5D1F4F842E912CA12CB12CA501940151
:101170000E946810E62FB901CA0101501109EA3036
:1011800014F4E05D01C0E95CD801EC93232B242B1F
:10119000252B61F7C8010E945A08A1960FB6F89452
:1011A000DEBF0FBECDBFDF91CF911F910F91BF90DA
:1011B000AF909F908F900895CF92DF92EF92FF9221
:1011C0000F931F93CF93DF931F92CDB7DEB7F82E07
:1011D00020914702D22E253010F084E0D82E809145
:1011E0004802811103C0E22EED1801C0E12C998361
:1011F0000E944B0680EA0E946C040F2D9981192FE2
:10120000DA94FFEFDF1631F0F80181918F010E942F
:101210006C04F6CFEE2029F080E00E946C04EA9482
:10122000F9CF0E94480681E00E94A7070E94160499
:101230006B017C018FEF0E947407807389F40E9418
:101240001604DC01CB018C199D09AE09BF0980365B
:101250009105A105B10570F381E080934F020BC0A9
:1012600080E00E94A70760E787E00E948A0784FF6A
:1012700004C00E94870780E001C081E00F90DF91E9
:10128000CF911F910F91FF90EF90DF90CF90089535
:1012900080E00E94A70780915002909151020E9425
:1012A000D1038DE10E947E0681FF08C0809150022B
:1012B000909151020E94D1030E94870780E00E9412
:1012C0007E06682F6E7F80E00E948A0782E00E947F
:1012D0007E06E4E6F3E0E49161E070E001C0660FB1
:1012E000EA95EAF7682B82E00C948A0787E10E946E
:1012F0007E06809581700895CF92DF92EF92FF92E3
:101300000F931F93CF93DF931F92CDB7DEB7E82ED5
:1013100020914702243010F4D22E02C084E0D82E4F
:1013200080914802811103C0C22ECD1801C0C12C8A
:1013300099830E944B0681E60E946C04F82E0E2DC4
:101340009981192FDA94FFEFDF1639F08FEF0E94A1
:101350006C04F80181938F01F5CFCC2029F08FEF39
:101360000E946C04CA94F9CF0E9448068F2D0F90FA
:10137000DF91CF911F910F91FF90EF90DF90CF9071
:101380000895CF93DF930E945A08EC018EE691E016
:101390000E945A088C0F9D1FDF91CF910895CF9323
:1013A000DF93CDB7DEB728970FB6F894DEBF0FBE38
:1013B000CDBF789484B5826084BD84B5816084BDDE
:1013C00085B5826085BD85B5816085BD80916E00E3
:1013D000816080936E001092810080918100826014
:1013E0008093810080918100816080938100809151
:1013F00080008160809380008091B1008460809340
:10140000B1008091B00081608093B00080917A003B
:10141000846080937A0080917A00826080937A0061
:1014200080917A00816080937A0080917A00806850
:1014300080937A001092C100E091AF01F091B00169
:1014400082E08083E091AB01F091AC011082E091E9
:10145000AD01F091AE0180E180831092B701E0917F
:10146000B301F091B40186E08083E091B101F09185
:10147000B201808180618083E091B101F091B2017D
:10148000808188608083E091B101F091B201808118
:1014900080688083E091B101F091B20180818F7DFD
:1014A000808386E192E00E948D0880EE91E00E94A8
:1014B0008D0860E070E081E293E00E94F20B0E94F0
:1014C000730411E080914F02882371F010924F0253
:1014D0006AEF70E080E090E00E94DC0384E291E03B
:1014E0000E94C1090E9473040E941604C0903C022D
:1014F000D0903D02E0903E02F0903F02DC01CB0133
:101500008C199D09AE09BF0989389341A105B10520
:10151000A0F00E94160460933C0270933D028093F9
:101520003E0290933F0286E00E947E0688728032DF
:1015300009F4ACC0883009F4A9C080919E018823C9
:10154000B9F10E94480980E193E00E948D080E9451
:10155000FC026D837E838F839887CE0105960E945F
:10156000DC08811104C089E093E00E948D080E948C
:10157000C8070E94FC026B017C010E947609811160
:101580008CC00E94FC02DC01CB018C199D09AE09C4
:10159000BF0981349D40A340B10578F38DEE92E000
:1015A0000E948D0868EE73E080E090E00E94DC030A
:1015B00080919E01811140C00E9476098823E1F14B
:1015C0000E9416046B017C010E9476098823E9F0D1
:1015D0000E941604DC01CB018C199D09AE09BF09DC
:1015E000853F9140A105B10538F08DE491E00E945E
:1015F000C10910934F0209C0CE0101960E947C09D7
:1016000060E787E00E948A07DFCF0E944809CE0189
:1016100001960E94DC080E94C80786EA92E00E94B8
:101620006C0869817A818B819C814AE00E949B08C9
:101630008EE691E00E945A088FE991E00E945202E2
:10164000892B09F18FE991E00E9430020E949510E8
:10165000843559F480919E01811115C08CE692E089
:101660000E948D0810939E010EC0823561F4809116
:101670009E01882341F083E392E00E948D0810923E
:101680009E010E94C8070E94F2021CCF10934F02D5
:1016900081E791E00E945A0850CF0E9416046B0126
:1016A0007C010E9476098823E9F00E941604DC017F
:1016B000CB018C199D09AE09BF098B3F9105A1058E
:1016C000B10538F010934F028DE491E00E94C109FA
:1016D00009C0CE0101960E947C0960E787E00E9464
:1016E0008A07DFCF0E94FC026B017C0187EE92E04B
:1016F0000E946C086D817E818F8198854AE00E94EE
:101700009B0887ED92E00E946C0869817A818B8149
:101710009C814AE00E949B0883EC92E00E946C0846
:101720008D819E81AF81B885A7019601281B390B59
:101730004A0B5B0BCA01B9014AE00E949B0885EB8A
:1017400092E02ECFEFE9F1E01382128288EE93E06F
:10175000A0E0B0E084839583A683B78386E191E01F
:101760009183808385EC90E09587848784EC90E07A
:101770009787868780EC90E0918B808B81EC90E05E
:10178000938B828B82EC90E0958B848B86EC90E03F
:10179000978B868B118E128E138E148EE0E4F2E0FE
:1017A00089E090E0918380838AE090E09383828354
:1017B000168280E28783108685E0868785E090E048
:1017C000A0E0B0E0848B958BA68BB78B11860E942E
:1017D000160460933C0270933D0280933E02909306
:1017E0003F0208950F931F93CF93DF93009731F437
:1017F0006115710519F480E090E03AC08B01EC01AD
:101800006EE070E081E090E00E94350EFC01892BD3
:1018100091F380E883830115110571F01387028726
:1018200081E883838091580290915902892B21F499
:10183000F0935902E09358022097C9F0D187C087EE
:1018400083818260838380915A0290915B02892B0D
:1018500071F4F0935B02E0935A0280915C029091E4
:101860005D02892B21F4F0935D02E0935C02CF01CD
:10187000DF91CF911F910F910895A0E0B0E0E3E4D4
:10188000FCE00C943F10AE01495F5F4FDA016D91AF
:101890007D91AD0108E512E0F80182819381DC01C0
:1018A00013962C911397286013962C930E94630C27
:1018B000D8011296ED91FC9113972381277F238302
:1018C000E4E00C945B10ACE0B0E0E9E6FCE00C94E2
:1018D00031107C016B018A01FC0117821682838121
:1018E00081FFBDC1CE0101964C01F7019381F60144
:1018F00093FD859193FF81916F01882309F4ABC11A
:10190000853239F493FD859193FF81916F01853282
:1019100029F4B70190E00E949B0FE7CF512C312CA6
:1019200020E02032A0F48B3269F030F4803259F09C
:10193000833269F420612CC08D3239F0803339F460
:10194000216026C02260246023C0286021C027FDBA
:1019500027C030ED380F3A3078F426FF06C0FAE0A1
:101960005F9E300D1124532E13C08AE0389E300D37
:101970001124332E20620CC08E3221F426FD6BC15F
:10198000206406C08C3611F4206802C0883641F409
:10199000F60193FD859193FF81916F018111C1CF74
:1019A000982F9F7D9554933028F40C5F1F4FFFE3D1
:1019B000F9830DC0833631F0833771F0833509F038
:1019C0005BC022C0F801808189830E5F1F4F4424D1
:1019D0004394512C540115C03801F2E06F0E711C74
:1019E000F801A080B18026FF03C0652D70E002C021
:1019F0006FEF7FEFC5012C870E94900F2C018301B0
:101A00002C852F77222E17C03801F2E06F0E711C43
:101A1000F801A080B18026FF03C0652D70E002C0F0
:101A20006FEF7FEFC5012C870E947E0F2C012C8564
:101A30002068222E830123FC1BC0832D90E04816D2
:101A40005906B0F4B70180E290E00E949B0F3A94EF
:101A5000F4CFF50127FC859127FE81915F01B70145
:101A600090E00E949B0F31103A94F1E04F1A510818
:101A70004114510471F7E5C0843611F0893639F507
:101A8000F80127FF07C060817181828193810C5F1B
:101A90001F4F08C060817181072E000C880B990BC5
:101AA0000E5F1F4F2F76722E97FF09C0909580957D
:101AB000709561957F4F8F4F9F4F2068722E2AE05F
:101AC00030E0A4010E94D30FA82EA81844C0853787
:101AD00029F42F7EB22E2AE030E025C0F22FF97FC4
:101AE000BF2E8F36C1F018F4883579F0B4C0803736
:101AF00019F0883721F0AFC02F2F2061B22EB4FE2D
:101B00000DC08B2D8460B82E09C024FF0AC09F2F02
:101B10009660B92E06C028E030E005C020E130E034
:101B200002C020E132E0F801B7FE07C06081718198
:101B3000828193810C5F1F4F06C06081718180E0BC
:101B400090E00E5F1F4FA4010E94D30FA82EA8188B
:101B5000FB2DFF777F2E76FE0BC0372D3E7FA51421
:101B600050F474FE0AC072FC08C0372D3E7E05C0DA
:101B7000BA2C372D03C0BA2C01C0B52C34FF0DC0D0
:101B8000FE01EA0DF11D8081803311F4397E09C018
:101B900032FF06C0B394B39404C0832F867809F053
:101BA000B39433FD13C030FF06C05A2CB31418F49D
:101BB000530C5B18B32CB31468F4B70180E290E0C7
:101BC0003C870E949B0FB3943C85F5CFB31410F46F
:101BD0003B1801C0312C34FF12C0B70180E390E004
:101BE0003C870E949B0F3C8532FF17C031FD03C02C
:101BF00088E790E002C088E590E0B7010CC0832F31
:101C0000867859F031FF02C08BE201C080E237FDD7
:101C10008DE2B70190E00E949B0FA51438F4B70144
:101C200080E390E00E949B0F5A94F7CFAA94F401AE
:101C3000EA0DF11D8081B70190E00E949B0FA11079
:101C4000F5CF332009F451CEB70180E290E00E9435
:101C50009B0F3A94F6CFF7018681978102C08FEFF0
:101C60009FEF2C96E2E10C944D100F931F93CF93AE
:101C7000DF93869F8001879F100D969F100D112482
:101C8000C8010E94510EEC01009729F0A80160E004
:101C900070E00E94890FCE01DF91CF911F910F91CB
:101CA0000895CF93DF938230910510F482E090E0A5
:101CB000E0916002F091610220E030E0C0E0D0E00D
:101CC000309711F14081518148175907C0F04817EA
:101CD000590761F482819381209719F09B838A834D
:101CE0002BC0909361028093600226C021153105BC
:101CF00019F04217530718F49A01BE01DF01EF01F2
:101D00000280F381E02DDCCF2115310509F1281B7C
:101D1000390B2430310590F412968D919C911397D4
:101D20006115710521F0FB019383828304C09093B8
:101D3000610280936002FD01329644C0FD01E20F12
:101D4000F31F81939193225031092D933C933AC014
:101D500020915E0230915F02232B41F420910E010D
:101D600030910F0130935F0220935E0220910C01AD
:101D700030910D012115310541F42DB73EB7409149
:101D8000100150911101241B350BE0915E02F0917E
:101D90005F02E217F307A0F42E1B3F0B2817390749
:101DA00078F0AC014E5F5F4F2417350748F04E0FB7
:101DB0005F1F50935F0240935E028193919302C034
:101DC000E0E0F0E0CF01DF91CF9108950F931F93F2
:101DD000CF93DF93009709F48CC0FC0132971382F4
:101DE000128200916002109161020115110581F4C7
:101DF00020813181820F931F20915E0230915F021A
:101E00002817390779F5F0935F02E0935E0271C0FD
:101E1000D80140E050E0AE17BF0750F412962D9164
:101E20003C911397AD012115310509F1D901F3CF8B
:101E30009D01DA013383228360817181860F971FB0
:101E40008217930769F4EC0128813981260F371F27
:101E50002E5F3F4F318320838A819B8193838283CE
:101E6000452B29F4F0936102E093600242C013967F
:101E7000FC93EE931297ED01499159919E01240F25
:101E8000351FE217F30771F480819181840F951F4C
:101E9000029611969C938E938281938113969C93C4
:101EA0008E931297E0E0F0E0D80112968D919C910C
:101EB0001397009719F0F8018C01F6CF8D919C9142
:101EC00098012E5F3F4F820F931F20915E02309149
:101ED0005F022817390769F4309729F410926102DC
:101EE0001092600202C01382128210935F0200936C
:101EF0005E02DF91CF911F910F910895FC01059033
:101F0000615070400110D8F7809590958E0F9F1FFB
:101F10000895DC0101C06D9341505040E0F70895F1
:101F2000FC016150704001900110D8F780959095A8
:101F30008E0F9F1F08950F931F93CF93DF93FB0185
:101F4000238121FD03C08FEF9FEF28C022FF16C021
:101F500046815781248135814217530744F4A0817B
:101F6000B1819D012F5F3F4F318320838C93268168
:101F700037812F5F3F4F3783268310C0EB01092F36
:101F8000182F0084F185E02D0995892BE1F68E81CB
:101F90009F8101969F838E83812F902FDF91CF9118
:101FA0001F910F910895FA01AA27283051F120318D
:101FB00081F1E8946F936E7F6E5F7F4F8F4F9F4FDD
:101FC000AF4FB1E03ED0B4E03CD0670F781F891F1F
:101FD0009A1FA11D680F791F8A1F911DA11D6A0FED
:101FE000711D811D911DA11D20D009F468943F91A0
:101FF0002AE0269F11243019305D3193DEF6CF019F
:102000000895462F4770405D4193B3E00FD0C9F764
:10201000F6CF462F4F70405D4A3318F0495D31FDD1
:102020004052419302D0A9F7EACFB4E0A695979524
:10203000879577956795BA95C9F7009761057105FA
:1020400008959B01AC010A2E069457954795379544
:102050002795BA95C9F7620F731F841F951FA01D9E
:1020600008952F923F924F925F926F927F928F923C
:102070009F92AF92BF92CF92DF92EF92FF920F9317
:102080001F93CF93DF93CDB7DEB7CA1BDB0B0FB621
:10209000F894DEBF0FBECDBF09942A8839884888DE
:1020A0005F846E847D848C849B84AA84B984C88474
:1020B000DF80EE80FD800C811B81AA81B981CE0F6B
:1020C000D11D0FB6F894DEBF0FBECDBFED01089550
:1020D000A1E21A2EAA1BBB1BFD010DC0AA1FBB1F2C
:1020E000EE1FFF1FA217B307E407F50720F0A21B9E
:1020F000B30BE40BF50B661F771F881F991F1A940B
:1021000069F760957095809590959B01AC01BD0134
:10211000CF010895EE0FFF1F0590F491E02D099473
:1021200081E090E0F8940C949D10911108958156EF
:0E2130008A5108F4805285580895F894FFCF24
:10213E00314E6F646500324E6F64650000006202BE
:10214E008000000000008902F2012102D00252023A
:10215E0030024402526164696F206661696C757267
:10216E00652064657465637465642C207265737490
:10217E00617274696E6720726164696F0052616486
:10218E00696F20617661696C61626C652066616958
:10219E006C757265206465746563746564000D0A00
:1021AE0000526164696F20636F6E66696775726154
:1021BE0074696F6E206572726F72206465746563E8
:0421CE0074656400D0
:00000001FF
