:100000000C94E3000C940B010C940B010C940B0169
:100010000C940B010C940B010C940B010C940B0130
:100020000C940B010C940B010C940B010C94CF0459
:100030000C940B010C940B010C940B010C940B0110
:100040000C9450040C940B010C948D030C946703D6
:100050000C940B010C940B010C940B010C940B01F0
:100060000C940B010C940B0100407A10F35A00A081
:10007000724E18090010A5D4E80000E87648170071
:1000800000E40B54020000CA9A3B000000E1F505B1
:10009000000080969800000040420F000000A086FB
:1000A00001000000102700000000E803000000002D
:1000B0006400000000000A000000000001000000D1
:1000C00000002C76D888DC674F0823DFC1DFAE59EB
:1000D000E1B1B796E5E3E453C63AE651997696E87E
:1000E000E6C28426EB898C9B62ED407C6FFCEFBC02
:1000F0009C9F40F2BAA56FA5F490055A2AF75C932D
:100100006B6CF9676DC11BFCE0E40D47FEF520E662
:10011000B500D0ED902E0300943577050080841E45
:10012000080000204E0A000000C80C333333330FA0
:10013000986E12831141EF8D2114893BE65516CF3D
:10014000FEE6DB18D1844B381BF77C1D901DA4BB49
:10015000E424203284725E228100C9F124ECA1E5FE
:100160003D27000000080002010000030407000012
:100170000000000000001112131415160A0B0C0DDC
:100180000E0F0001020304050000000025002800F6
:100190002B0000000000240027002A0004040404AF
:1001A0000404040402020202020203030303030321
:1001B00001020408102040800102040810200102FE
:1001C00004081020B10C11241FBECFEFD8E0DEBF11
:1001D000CDBF11E0A0E0B1E0ECE5F8E202C005908F
:1001E0000D92AE36B107D9F722E0AEE6B1E001C01C
:1001F0001D92A93AB207E1F710E0C3EED0E004C0C7
:100200002197FE010E940012C23ED107C9F70E9449
:1002100043080C942C140C940000089580E090E0A6
:100220000895FC01538D448D252F30E0842F90E0FC
:10023000821B930B541710F0CF96089501970895E1
:10024000FC01918D828D981761F0828DDF01A80FDE
:10025000B11D5D968C91928D9F5F9F73928F90E000
:1002600008958FEF9FEF0895FC01918D828D98176F
:1002700031F0828DE80FF11D858D90E008958FEFAC
:100280009FEF0895FC01918D228D892F90E0805C75
:100290009F4F821B91098F73992708958FE791E0F3
:1002A0000E94420121E0892B09F420E0822F089569
:1002B000FC01848DDF01A80FB11DA35ABF4F2C9103
:1002C000848D90E001968F739927848FA689B789D2
:1002D0002C93A089B1898C9180648C93938D848DAB
:1002E000981306C00288F389E02D80818F7D80837A
:1002F0000895EF92FF920F931F93CF93DF93EC013A
:1003000081E0888F9B8D8C8D981305C0E889F989D1
:10031000808185FD24C0F62E0B8D10E00F5F1F4FEE
:100320000F731127E02E8C8DE8120CC00FB607FC5E
:10033000FACFE889F989808185FFF5CFCE010E9447
:100340005801F1CF8B8DFE01E80FF11DE35AFF4FED
:10035000F0820B8FEA89FB898081806207C0EE8979
:10036000FF896083E889F98980818064808381E0E6
:1003700090E0DF91CF911F910F91FF90EF90089542
:10038000CF93DF93EC01888D8823C9F0EA89FB893C
:10039000808185FD05C0A889B9898C9186FD0FC033
:1003A0000FB607FCF5CF808185FFF2CFA889B98908
:1003B0008C9185FFEDCFCE010E945801E7CFDF91F0
:1003C000CF91089580E090E0892B29F00E944E01A2
:1003D00081110C94000008953FB7F8948091740146
:1003E00090917501A0917601B091770126B5A89BF7
:1003F00005C02F3F19F00196A11DB11D3FBFBA2FB7
:10040000A92F982F8827820F911DA11DB11DBC0116
:10041000CD0142E0660F771F881F991F4A95D1F7DB
:1004200008952FB7F89460917001709171018091D7
:100430007201909173012FBF08950F931F93CF9373
:10044000DF931F92CDB7DEB78C01DC018C918C302D
:1004500008F055C0862F69830E944F06F8018081FD
:10046000E82FF0E09F01220F331FE20FF31FEE5938
:10047000FD4F69816F739081907C692B6083D801F7
:1004800011961C92119712961C926CE00E94F41126
:10049000BCE08B9FB001112440E050E09A01260F90
:1004A000371FF901EE0FFF1F2E0F3F1FF901EE5905
:1004B000FD4F908196FD16C04F5F5F4F4C30510548
:1004C00069F781110FC01092800082E08093810053
:1004D0001092850010928400B19A80916F00826022
:1004E00080936F00D801EC91F0E0CF01880F991F45
:1004F000E80FF91FEE59FD4F808180648083F80179
:1005000080810F90DF91CF911F910F910895BF923D
:10051000CF92DF92EF92FF920F931F93CF93DF93CF
:1005200000D000D000D0CDB7DEB76C018A017B01CE
:100530008FEFE81AF80A4E155F0528F49E2D8F2DCF
:100540007A01092F182F69E271E0CE0101960E940D
:100550000808D60114968D919C911597E816F90616
:10056000D0F48017910708F48C01D601ED91FC912D
:100570001197E00FF11FB08010826D917C916E0D8C
:100580007F1DCE0101960E94D707D601ED91FC9107
:10059000E00FF11FB08289819A81009729F00E94B3
:1005A0008E0D6B017C0103C0C12CD12C7601CE01D4
:1005B00001960E940308C60126960FB6F894DEBF86
:1005C0000FBECDBFDF91CF911F910F91FF90EF90A4
:1005D000DF90CF90BF9008952F923F924F925F92FD
:1005E0006F927F928F929F92AF92BF92CF92DF9243
:1005F000EF92FF920F931F93CF93DF93CDB7DEB7A8
:100600002A970FB6F894DEBF0FBECDBF6C014B0129
:100610008A01FC01A480B580A114B10469F0E080D6
:10062000F180FB0160817181C7010E941214009763
:1006300019F08E199F0902C08FEF9FEF9A8389836B
:10064000CE0101967C013E0195E0690E711C1701F7
:10065000F701819191917F0101968A159B0578F4AC
:10066000F60140805180F40160817181840D951DF7
:100670000E941214009719F08419950902C08FEF97
:100680009FEFF70191838083E614F70409F7000FC9
:10069000111FF101E00FF11F808191812A960FB6A1
:1006A000F894DEBF0FBECDBFDF91CF911F910F91A8
:1006B000FF90EF90DF90CF90BF90AF909F908F9082
:1006C0007F906F905F904F903F902F9008951F9272
:1006D0000F920FB60F9211242F933F934F935F9376
:1006E0006F937F938F939F93AF93BF93EF93FF93FA
:1006F0008FE791E00E945801FF91EF91BF91AF9178
:100700009F918F917F916F915F914F913F912F9129
:100710000F900FBE0F901F9018951F920F920FB65B
:100720000F9211242F938F939F93EF93FF93E09158
:100730008F01F09190018081E0919501F0919601F7
:1007400082FD12C09081809198018F5F8F732091FC
:100750009901821751F0E0919801F0E0E158FE4FC5
:10076000958F8093980101C08081FF91EF919F91B7
:100770008F912F910F900FBE0F901F90189590E0C2
:10078000FC01EE59FE4F3491FC01E055FE4F2491DF
:10079000FC01E456FE4FE491EE2309F43BC0332301
:1007A00039F1333091F038F43130A9F0323001F5BD
:1007B00084B58F7D12C0373091F03830A1F03430DD
:1007C000B9F4809180008F7D03C0809180008F7785
:1007D000809380000DC084B58F7784BD09C080915F
:1007E000B0008F7703C08091B0008F7D8093B00000
:1007F000F0E0EE0FFF1FE857FE4FA591B4918FB7C1
:10080000F894EC91611103C020952E2301C02E2B8A
:100810002C938FBF08958230910538F0880F991F6F
:10082000880F991F05970197F1F708958F929F926E
:10083000AF92BF92CF92DF92EF92FF926B017C0159
:100840000E94EC014B015C01C114D104E104F104EC
:10085000F1F00E94EC01DC01CB0188199909AA0989
:10086000BB09883E9340A105B10570F321E0C21A8F
:10087000D108E108F10888EE880E83E0981EA11CDB
:10088000B11CC114D104E104F10419F7DDCFFF90CC
:10089000EF90DF90CF90BF90AF909F908F90089592
:1008A0001F920F920FB60F9211242F933F938F93A5
:1008B0009F93AF93BF938091700190917101A0912C
:1008C0007201B091730130916F0123E0230F2D3736
:1008D00020F40196A11DB11D05C026E8230F029644
:1008E000A11DB11D20936F01809370019093710140
:1008F000A0937201B093730180917401909175017E
:10090000A0917601B09177010196A11DB11D809350
:10091000740190937501A0937601B0937701BF9114
:10092000AF919F918F913F912F910F900FBE0F909C
:100930001F901895FC0190819C3080F5818128E8FA
:1009400030E0281B310987FD3395220F331F220F1A
:10095000331F621773077CF0828128E532E0281B81
:10096000310987FD3395220F331F220F331F621782
:1009700073070CF49B0122503109220F331F4FB72C
:10098000F894892F90E0FC01EE0FFF1F8E0F9F1F40
:10099000FC01EE59FD4F328321834FBF08951F9212
:1009A0000F920FB60F9211242F933F934F935F93A3
:1009B0006F937F938F939F93AF93BF93EF93FF9327
:1009C00080916E0187FF05C010928500109284000F
:1009D0001BC020916E01022E000C330B8091860209
:1009E00090E02817390784F480916E01082E000CDE
:1009F000990BFC01EE0FFF1F8E0F9F1FFC01EE599C
:100A0000FD4F808186FD15C080916E018F5F8093C0
:100A10006E0120916E01022E000C330B8091860234
:100A200090E028173907C4F480916E018C3064F18E
:100A300013C080916E01082E000C990BFC01EE0F83
:100A4000FF1F8E0F9F1FFC01EE59FD4F808160E05C
:100A50008F730E94BF03D8CF80918400909185004E
:100A6000049680349C4918F480E49CE905C0809188
:100A7000840090918500049690938900809388006B
:100A80008FEF80936E013BC02091840030918500F0
:100A900080916E01082E000C990BFC01EE0FFF1FD8
:100AA0008E0F9F1FFC01EE59FD4F81819281820FB5
:100AB000931F909389008093880080916E01082E87
:100AC000000C990BFC01EE0FFF1F8E0F9F1FFC0106
:100AD000EE59FD4F808186FF12C080916E01082E75
:100AE000000C990BFC01EE0FFF1F8E0F9F1FFC01E6
:100AF000EE59FD4F808161E08F730E94BF03FF912B
:100B0000EF91BF91AF919F918F917F916F915F9185
:100B10004F913F912F910F900FBE0F901F901895FE
:100B20008EBD00000DB407FEFDCF8EB50895CF92A7
:100B3000DF92EF92FF920F931F93CF93DF936C019D
:100B40007A018B01C0E0D0E0CE15DF0589F0D80135
:100B50006D918D01D601ED91FC910190F081E02D18
:100B6000C6010995892B11F47E0102C02196ECCFB4
:100B7000C701DF91CF911F910F91FF90EF90DF9010
:100B8000CF9008950E94FD13EFE7F1E0A089B189AD
:100B900082E08C93A485B5851C92A685B78580E1FB
:100BA0008C93108EA489B58986E08C93A289B38931
:100BB0008C9180618C93A289B3898C9188608C938D
:100BC000A289B3898C9180688C930288F389E02D87
:100BD00080818F7D80830895009769F0FC010190EA
:100BE0000020E9F73197AF01481B590BBC018FE793
:100BF00091E00C94970580E090E00895CF92DF9209
:100C0000EF92FF92BC01603282E078070CF03FC0A7
:100C100077FD06C0653B71052CF064EB70E002C007
:100C200060E070E08091A30228E830E06901C81A12
:100C3000D10887FDD394CC0CDD1CCC0CDD1C0D2C15
:100C4000000CEE08FF088091A40228E532E0281B82
:100C5000310987FD3395220F331F220F331FC9013E
:100C6000330FAA0BBB0B9C01AD012C193D094E099A
:100C70005F09DB010E94341124EB30E040E050E0DA
:100C80000E940A11C20ED31EE41EF51EB60182EAAE
:100C900092E0FF90EF90DF90CF900C949A0490E058
:100CA000FC01E055FE4F2491FC01E456FE4F849177
:100CB000882399F090E0880F991FFC01EE56FE4FB3
:100CC000A591B491FC01E857FE4F859194918FB79F
:100CD000F894EC91E22BEC938FBF0895CF93DF93C0
:100CE0009CB59F7D9CBD9CB5937F9CBD9CB59C7F16
:100CF0009CBD9DB591609DBDC7E8D2E0682F8A81FB
:100D00000E94BF038C899D89DF91CF910C940B04C5
:100D100081E00C946E0680E00C946E06CF93DF9316
:100D20001F92CDB7DEB70E948B0681EE0E94900520
:100D300089830E94880689810F90DF91CF91089561
:100D4000CF93DF931F92CDB7DEB789830E948B06C6
:100D500089818F710E9490058FEF0E949005898391
:100D60000E94880689810F90DF91CF9108951F938B
:100D7000CF93DF9300D0CDB7DEB76A8389830E941B
:100D80008B0689818F7180620E949005182F6A817D
:100D9000862F0E9490050E948806812F0F900F9049
:100DA000DF91CF911F910895EF92FF920F931F93C0
:100DB000CF93DF9300D01F92CDB7DEB7162F4A83B3
:100DC0007B8389830E948B0689818F7180620E9458
:100DD0009005082FE12E7B81F72E4A81140F1E15F6
:100DE00031F0F70181917F010E949005F8CF0E94B8
:100DF0008806802F0F900F900F90DF91CF911F9159
:100E00000F91FF90EF900895209187023091880212
:100E10004091890250918A022417350721F0682FEA
:100E2000822F0C94BF03089580E00E94A00681FDEC
:100E30000BC0682F626080E00E94B70665E070E03A
:100E400080E090E00C94160408950E94140780E05E
:100E50000E94A006682F616080E00E94B70660E7EC
:100E600087E00E94B70681E00E940407809190020B
:100E7000882341F04091950260E972E08AE00E9487
:100E8000D40612C082E00E94A006E2E8F1E0E491FC
:100E900021E030E001C0220FEA95EAF72095622FA9
:100EA000682382E00E94B7068DE10E94A00681FDC2
:100EB0000C948E060895CF93DF93FC0144815581F5
:100EC000608171818FE791E00E949705EC0187E2D4
:100ED00091E00E94EC058C0F9D1FDF91CF9108954A
:100EE0000F931F93CF93DF93EC0188819981009733
:100EF00029F02A813B812617370788F48B016F5F21
:100F00007F4F0E943313009761F0998388831B837E
:100F10000A832C813D81232B11F4FC01108281E096
:100F200001C080E0DF91CF911F910F910895EF9262
:100F3000FF920F931F93CF93DF93FC0124813581A0
:100F40006115710511F480E019C041155105A9F032
:100F50007B01EC018A01020F131FB8010E94700788
:100F6000882389F3288139818C819D81B701820F83
:100F7000931F0E940B141D830C8381E0DF91CF919E
:100F80001F910F91FF90EF900895CF93DF93EC01A5
:100F900088819981009711F00E949B121982188212
:100FA0001D821C821B821A82DF91CF910895EF92DD
:100FB000FF920F931F93CF93DF938C017B016115F9
:100FC000710569F0FB0101900020E9F73197EF010D
:100FD000C61BD70BBE010E947007811104C0C80157
:100FE0000E94C50708C0F801D583C483B70180817A
:100FF00091810E940B14C801DF91CF911F910F9135
:10100000FF90EF900895FC01808191810C949B12D8
:10101000EF92FF920F931F93CF93DF93EC0119820E
:1010200018821B821A821D821C826115710521F1B2
:101030008B01FB0101900020E9F731977F01E61A4F
:10104000F70AB7010E947007811109C0CE01DF9134
:10105000CF911F910F91FF90EF900C94C507FD82E7
:10106000EC82B80188819981DF91CF911F910F9116
:10107000FF90EF900C940B14DF91CF911F910F9183
:10108000FF90EF900895CF93DF93CDB7DEB7CA56A8
:10109000D1090FB6F894DEBF0FBECDBF789484B5EA
:1010A000826084BD84B5816084BD85B5826085BD64
:1010B00085B5816085BD80916E00816080936E00F2
:1010C00010928100809181008260809381008091E4
:1010D0008100816080938100809180008160809395
:1010E00080008091B10084608093B1008091B00055
:1010F00081608093B00080917A00846080937A0050
:1011000080917A00826080937A0080917A00816079
:1011100080937A0080917A00806880937A001092A0
:10112000C10010925E0210925F0210926002109253
:10113000610210921E0210921F0210922002109261
:1011400021020E9411026B017C014B015C0128EB22
:10115000820E2BE0921EA11CB11C0E9411026C1584
:101160007D058E059F0528F086169706A806B90608
:10117000A0F760ED77E080E090E00E9416040E9406
:10118000C4050E94110260931E0270931F02809397
:1011900020029093210288E191E00E94EC050E94D8
:1011A00011026B017C014B015C013AE0830E911C42
:1011B000A11CB11C0E9411026C157D058E059F05B6
:1011C00028F086169706A806B906A0F781E0809356
:1011D00032020E94C405809187029091880220917A
:1011E000890230918A028217930711F00E944F06FC
:1011F0008091890290918A02209187023091880221
:101200002817390711F00E944F061FB7F8948091F4
:101210007801811124C0E6EAF1E08491EAEBF1E083
:101220009491E82FF0E0EE0FFF1FEE56FE4FA591D0
:10123000B491EC91E92321F461E08AE00E94BF03BC
:101240008AE00E944F068CB580618CBD8CB58064AD
:101250008CBD8DE00E944F068BE00E944F0680916E
:1012600078018F5F809378011FBF80E00E940407A0
:1012700081E00E946E0665E070E080E090E00E94F0
:1012800016046CE080E00E94B7066FE584E00E94DF
:10129000B70686E00E94A006877D182F10628BE9B2
:1012A00090E0A0E0B0E08093970290939802A09322
:1012B0009902B0939A02612F86E00E94B70686E0F9
:1012C0000E94A006811709F4B5C186E00E94A0061D
:1012D00086E00E94A00645E550E060E070E04093A3
:1012E0009702509398026093990270939A02682F24
:1012F000677D86E00E94B70686E00E94A0060E94F5
:101300008B0680E50E94900583E70E9490050E946D
:10131000880660E08DE10E94B70660E08CE10E94E3
:10132000B70610928F0260E787E00E94B7066CE470
:1013300085E00E94B7060E948B0682EE0E9490050F
:101340000E9488060E948E060E94140780E00E9478
:10135000A006682F6E7F80E00E94B7068EE32B9672
:101360008FAF2B972CE9E22E2C96EFAE2C9737E01F
:10137000F32E2D96FFAE2D970EED2E960FAF2E97D6
:101380001BEC2F961FAF2F9760961FAE609761964C
:101390001FAE619762961FAE6297EDE7F1E0849110
:1013A00040919502BE01665B7F4F0E94D406E7E73D
:1013B000F1E0849160918E020E94B70682E00E9463
:1013C000A006E3E8F1E0E49161E070E001C0660F9F
:1013D000EA95EAF7682B82E00E94B7068DE3239630
:1013E0008FAF23972496EFAE24972596FFAE2597CF
:1013F00026960FAF269727961FAF279728961FAEE2
:10140000289729961FAE29972A961FAE2A974091B2
:101410009502BE016E5B7F4F8AE00E94D406409128
:101420009502BE016E5B7F4F80E10E94D406609101
:101430008E0281E10E94B70686E00E94A006682F16
:10144000676086E00E94B70686E00E94A0061BA2A5
:101450001AA21DA21CA21FA21EA2867090E04AE042
:10146000BE016F5F7F4F969587950E94CA0DBE01A2
:101470006F5F7F4FCE0182960E94D7076AE271E0CC
:10148000CE0101960E9408084EA15FA16AA17BA12E
:10149000CE0101960E949707811104C0CE010196EA
:1014A0000E94C507CE0101960E945B07CE010196FE
:1014B0000E940308CE0182960E9403080E9425071D
:1014C0000E9411026093790170937A0180937B01ED
:1014D00090937C0163E070E082EA92E00E941D023A
:1014E00065E070E08FE992E00E941D028AE590E0DD
:1014F0000E94FE056CED75E08FE992E00E949A046F
:1015000086E391E00E94EC0587E291E00E94EC0501
:1015100082E8282E81E0382E98EE492E93E0592E4D
:10152000612C712C64E170E080E090E00E94160470
:10153000E8E6F1E0DE01119686E001900D928A95D1
:10154000E1F780E00E940407809197029091980251
:101550000E940B048DE10E94A00681FF08C08091CB
:101560009702909198020E940B040E948E0680E0E0
:101570000E94A006682F6E7F80E00E94B70682E07E
:101580000E94A006F101949121E030E001C0220FF9
:101590009A95EAF7682F622B82E00E94B7061091B5
:1015A0008E02012F173008F006E080918F02811122
:1015B00002C0101B01C010E00E948B0680EA0E944E
:1015C00090059E012F5F3F4F6901015030F0F601F9
:1015D00081916F010E949005F8CF112329F080E0DE
:1015E0000E9490051150F9CF0E94880681E00E9468
:1015F00004070E948B068FEF0E949005AB968FAF79
:10160000AB970E948806AB968FADAB97807389F33A
:1016100080E00E94040760E787E00E94B70684FD2F
:101620000E948E060E94250787E10E94A00680FF87
:1016300005C078CF81E080938D0247CE10918E0255
:10164000103208F487C100E280918F02811102C03C
:10165000101B01C010E00E948B0681E60E949005DD
:101660009E012E5D3F4F6901015038F08FEF0E94BF
:101670009005F60181936F01F7CF112329F08FEFC9
:101680000E9490051150F9CF0E94880660E787E01C
:101690000E94B7068AA1882349F080917D0190912C
:1016A0007E01019690937E0180937D016BE471E051
:1016B000CE0101960E940808BE016E5D7F4FCE01EB
:1016C0008E5A9F4F0E94080840E050E0BE016F5FB5
:1016D0007F4FCE018E5A9F4F0E94EC026C016DE449
:1016E00071E0CE01885A9F4F0E940808BE016E5DCE
:1016F0007F4FCE01825A9F4F0E94080840E050E081
:10170000BE01685A7F4FCE01825A9F4F0E94EC0261
:101710008C01BE016E5D7F4FCE018C599F4F0E94A0
:101720000808A601B801CE018C599F4F0E9487027C
:101730008C01CE018C599F4F0E940308CE01825A22
:101740009F4F0E940308CE01885A9F4F0E940308B2
:10175000CE018E5A9F4F0E940308CE0101960E942F
:1017600003086BE471E0CE0101960E940808BE01F7
:101770006E5D7F4FCE018E5A9F4F0E94080841E058
:1017800050E0BE016F5F7F4FCE018E5A9F4F0E9487
:10179000EC025C016CE671E0CE01885A9F4F0E941A
:1017A0000808BE016E5D7F4FCE01825A9F4F0E9496
:1017B000080840E050E0BE01685A7F4FCE01825ACF
:1017C0009F4F0E94EC026C01BE016E5D7F4FCE0107
:1017D0008C599F4F0E940808A501B601CE018C5973
:1017E0009F4F0E9487026C01CE018C599F4F0E942F
:1017F0000308CE01825A9F4F0E940308CE01885AE7
:101800009F4F0E940308CE018E5A9F4F0E940308EB
:10181000CE0101960E940308C6010E94FE05B80190
:101820008FE992E00E949A0400917D0110917E015F
:10183000083EF3E01F070CF48AC00E9411024B011E
:101840005C01B801110F880B990B0E945C106B01B1
:101850007C018091790190917A01A0917B01B091F6
:101860007C01A5019401281B390B4A0B5B0BCA01B3
:10187000B901A30192010E94E810CA01B9010E94B6
:101880005A109B01AC01C701B6010E9482116496F7
:101890001FAE1EAE649766961FAE1EAE6697689624
:1018A0001FAE1EAE68978E010F5F1F4F22E044E00F
:1018B0000E946E0DBC01CE018E5A9F4F0E94D70729
:1018C0006FE471E0C8010E94080868964EAD5FADF4
:1018D000689764966EAD7FAD6497C8010E949707C4
:1018E000811103C0C8010E94C5070D811E810E5FD2
:1018F0001F4FB801CE0101960E947007882361F145
:1019000029813A818D819E8165E671E0820F931F66
:101910000E940B141E830D83CE0101960E945B076B
:10192000CE0101960E940308CE018E5A9F4F0E945D
:10193000030810927E0110927D010E9411026093B3
:10194000790170937A0180937B0190937C010E94CE
:10195000E201E8CD012F78CECE0101960E94C507A5
:10196000DBCF109282011092810188EE93E0A0E01B
:10197000B0E08093830190938401A0938501B0939C
:1019800086018AE091E09093800180937F0185EC4D
:1019900090E090938C0180938B0184EC90E0909385
:1019A0008E0180938D0180EC90E090939001809364
:1019B0008F0181EC90E0909392018093910182ECF1
:1019C00090E0909394018093930186EC90E0909343
:1019D00096018093950110929801109299011092AE
:1019E0009A0110929B0110922202109223021092EF
:1019F00024021092250210922602109227021092C1
:101A000028021092290210922A0210922B021092A0
:101A10002C0210922D0210922E0210922F02109280
:101A2000300210923102809186028C30A0F491E055
:101A3000980F909386028093A20290E0FC01EE0F33
:101A4000FF1F8E0F9F1FFC01EE59FD4F88EB9BE09F
:101A50009283818303C08FEF8093A20280918602DC
:101A60008C30A0F491E0980F9093860280939F02AF
:101A700090E0FC01EE0FFF1F8E0F9F1FFC01EE593F
:101A8000FD4F88EB9BE09283818303C08FEF8093AF
:101A90009F0289E090E090938802809387028AE019
:101AA00090E090938A028093890210928D0280E2E6
:101AB00080938E0210928F0285E08093950285E0DC
:101AC00090E0A0E0B0E080939B0290939C02A093F2
:101AD0009D02B0939E02109290020895EF920F9390
:101AE0001F93CF93DF93E80147FD02C034E001C0AC
:101AF00034E1E42F440FFF0BF7FF03C0F195E195AC
:101B0000F109E32E022F2E2FAE010E94E40DCE012B
:101B1000DF91CF911F910F91EF9008951F93FC01DA
:101B200099278827BC01E89411911032E9F3193004
:101B300010F01E30C8F31B3251F01D3249F4689486
:101B400006C00E94B50D610F711D811D911D11917F
:101B500010531A30B0F33EF49095809570956195CE
:101B60007F4F8F4F9F4F1F910895592F482F372F29
:101B7000262F660F771F881F991F660F771F881FF4
:101B8000991F620F731F841F951F660F771F881F91
:101B9000991F0895BB27FB015527AA27880F991F76
:101BA000AA1FA41710F0A41B83955051B9F7A05D8C
:101BB000AA3308F0A95DA193009779F7B111B19309
:101BC0001192CB010C944A104F925F926F927F92C8
:101BD0009F92AF92BF92CF92DF92EF92FF920F93BC
:101BE0001F93CF93DF93CDB7DEB729970FB6F89445
:101BF000DEBF0FBECDBF6A01122FB02E2BE3201720
:101C000020F0FF24F394F00E02C0BCE3FB2E0F2D56
:101C100027E0AE014F5F5F4F0E94720FAC018981D8
:101C2000982F9970913031F0E1FC06C0E0FE06C0BB
:101C300090E205C09DE203C09BE201C090E0EE2D62
:101C4000E07183FF3CC0911102C083E001C084E0D9
:101C5000811718F4212F281B01C020E0E1110BC0CF
:101C6000F601822F30E2882319F031938150FBCFA7
:101C7000C20ED11C20E0992329F0D6019C93F601D5
:101C800031966F01C6010396E2FE0AC03EE4D6011A
:101C90003C9341E411964C93119712963C9306C0E5
:101CA0003EE6F601308341E641833283FC01322F68
:101CB00040E2332309F442C041933150FACF82FF0E
:101CC00044C0911102C083E001C084E0811718F480
:101CD000212F281B01C020E0E1110BC0F601822F4B
:101CE00030E2882319F031938150FBCFC20ED11C12
:101CF00020E0992329F0D6019C93F60131966F01DB
:101D0000C6010396E2FE0BC039E4D6013C933EE4E3
:101D100011963C93119736E412963C9307C039E62E
:101D2000F60130833EE6318336E63283FC01322F02
:101D300040E2332319F041933150FBCFFC01E20F15
:101D4000F11D10828EEF9FEFB7C0F1E0911101C03D
:101D5000F0E06F2F70E01416150624F49A012F5F3F
:101D60003F4F02C021E030E0260F371FBB2029F093
:101D70006B2D70E06F5F7F4F02C060E070E0260F58
:101D8000371F612F70E0261737071CF4121B212F15
:101D900001C020E03E2D387159F4D601322F60E2A7
:101DA000332319F06D933150FBCFC20ED11C20E0CC
:101DB000FF2331F0D6019C93B6016F5F7F4F6B011B
:101DC000E1110BC0F601922F30E3992319F0319302
:101DD0009150FBCFC20ED11C20E09F2D940F3A8171
:101DE000782F7071A72E84FF03C0313309F491500E
:101DF000191624F4993018F098E001C091E0E42F0E
:101E0000852F57FF02C0E0E080E06E2F782FE0E0E2
:101E1000F0E0AEE29A2E3A01691A71082A01461AD8
:101E2000570A0B2D10E01195019511096F3F8FEFA7
:101E3000780729F4D6019C92C60101966C014617D9
:101E4000570784F0661677066CF47F01E40CF51CE6
:101E5000A1E0B0E0AC0FBD1FEA0EFB1ED70111964A
:101E6000BC9002C090E3B92E615071093196C60151
:101E700001967C016017710724F0D601BC926C01B9
:101E8000D5CF6417750741F4363320F4353321F488
:101E9000A11002C081E3B82EF601B082F701822FB3
:101EA00090E2882319F091938150FBCFF701E20F64
:101EB000F11D108280E090E029960FB6F894DEBF05
:101EC0000FBECDBFDF91CF911F910F91FF90EF908B
:101ED000DF90CF90BF90AF909F907F906F905F907A
:101EE0004F900895283008F027E03327DA01990F42
:101EF000311D87FD916000966105710539F43260EE
:101F00002E5F3D9330E32A95E1F708959F3F30F02F
:101F100080387105610509F03C5F3C5F3D9391306D
:101F200008F08068911DDF93CF931F930F93FF926A
:101F3000EF92192F987F9695E92F96959695E90F30
:101F4000FF27EE53FF4F99273327EE24FF24A701E5
:101F5000E70105900894079428F4360FE71EF81E51
:101F6000491F511D660F771F881F991F0694A1F7FF
:101F70000590079428F4E70EF81E491F561FC11D4F
:101F8000770F881F991F661F0694A1F70590079485
:101F900028F4F80E491F561FC71FD11D880F991F1F
:101FA000661F771F0694A1F70590079420F4490F48
:101FB000561FC71FD81F990F661F771F881F0694CB
:101FC000A9F784911095177041F0D695C79557954C
:101FD0004795F794E7941A95C1F7E8E6F0E068941E
:101FE0001590159135916591959105907FE27395C6
:101FF000E118F10A430B560BC90BD009C0F7E10CED
:10200000F11E431F561FC91FD01D7EF4703311F4FB
:102010008A95E6CFE894015030F0080F0AF40027C3
:10202000021708F4202F2395022F7A3328F079E342
:102030007D932A95E9F710C07D932A9589F6069439
:1020400097956795379517951794E118F10A430B03
:10205000560BC90BD00998F023957E9173957A336E
:1020600008F070E37C932013B8F77E9170617D9344
:1020700030F0839571E37D9370E32A95E1F71124A5
:10208000EF90FF900F911F91CF91DF91992787FDDE
:1020900090950895DC01FC01672F71917723E1F79A
:1020A000329704C07C916D9370836291AE17BF0725
:1020B000C8F30895E89409C097FB3EF49095809585
:1020C000709561957F4F8F4F9F4F9923A9F0F92FFE
:1020D00096E9BB279395F695879577956795B7957C
:1020E000F111F8CFFAF4BB0F11F460FF1BC06F5F62
:1020F0007F4F8F4F9F4F16C0882311F096E911C074
:10210000772321F09EE8872F762F05C0662371F094
:1021100096E8862F70E060E02AF09A95660F771FA8
:10212000881FDAF7880F9695879597F9089597F99C
:102130009F6780E870E060E008959FEF80EC08956D
:1021400000240A9416161706180609060895002496
:102150000A9412161306140605060895092E039410
:10216000000C11F4882352F0BB0F40F4BF2B11F484
:1021700060FF04C06F5F7F4F8F4F9F4F089557FDE3
:102180009058440F551F59F05F3F71F04795880FE5
:1021900097FB991F61F09F3F79F08795089512167C
:1021A00013061406551FF2CF4695F1DF08C0161628
:1021B00017061806991FF1CF8695710561050894D9
:1021C0000895E894BB2766277727CB0197F90895F0
:1021D000A1E21A2EAA1BBB1BFD010DC0AA1FBB1F2B
:1021E000EE1FFF1FA217B307E407F50720F0A21B9D
:1021F000B30BE40BF50B661F771F881F991F1A940A
:1022000069F760957095809590959B01AC01BD0133
:10221000CF010895052E97FB1EF400940E94211112
:1022200057FD07D00E94E81007FC03D04EF40C9431
:10223000211150954095309521953F4F4F4F5F4F5D
:10224000089590958095709561957F4F8F4F9F4F22
:1022500008950E947311A59F900DB49F900DA49FA7
:10226000800D911D11240895B7FF0C9429110E942F
:102270002911821B930B08952F923F924F925F92E8
:102280006F927F928F929F92AF92BF92CF92DF9286
:10229000EF92FF920F931F93CF93DF93CDB7DEB7EB
:1022A000CA1BDB0B0FB6F894DEBF0FBECDBF09947F
:1022B0002A88398848885F846E847D848C849B84D6
:1022C000AA84B984C884DF80EE80FD800C811B81E4
:1022D000AA81B981CE0FD11D0FB6F894DEBF0FBE13
:1022E000CDBFED010895A29FB001B39FC001A39F90
:1022F000700D811D1124911DB29F700D811D11243F
:10230000911D08950E9496110C94AE100E94A71082
:1023100058F00E94A01040F029F45F3F29F00C947F
:10232000971051110C94E2100C949D100E94BF1054
:1023300068F39923B1F3552391F3951B550BBB27F4
:10234000AA2762177307840738F09F5F5F4F220F39
:10235000331F441FAA1FA9F335D00E2E3AF0E0E830
:1023600032D091505040E695001CCAF72BD0FE2F7A
:1023700029D0660F771F881FBB1F2617370748070E
:10238000AB07B0E809F0BB0B802DBF01FF279358C6
:102390005F4F3AF09E3F510578F00C9497100C94E3
:1023A000E2105F3FE4F3983ED4F386957795679506
:1023B000B795F7959F5FC9F7880F911D96958795FB
:1023C00097F90895E1E0660F771F881FBB1F62171A
:1023D00073078407BA0720F0621B730B840BBA0BD8
:1023E000EE1F88F7E0950895991B79E004C0991FC6
:1023F000961708F0961B881F7A95C9F7809508955F
:10240000EE0FFF1F0590F491E02D0994CF93DF9319
:102410008230910510F482E090E0E091A702F09103
:10242000A80220E030E0C0E0D0E0309711F1408118
:10243000518148175907C0F04817590761F4828144
:102440009381209719F09B838A832BC09093A802D5
:102450008093A70226C02115310519F042175307B2
:1024600018F49A01BE01DF01EF010280F381E02D33
:10247000DCCF2115310509F1281B390B243031053A
:1024800090F412968D919C9113976115710521F02E
:10249000FB019383828304C09093A8028093A702D8
:1024A000FD01329644C0FD01E20FF31F8193919329
:1024B000225031092D933C933AC02091A5023091CE
:1024C000A602232B41F420910201309103013093A5
:1024D000A6022093A502209100013091010121154F
:1024E000310541F42DB73EB74091040150910501EB
:1024F000241B350BE091A502F091A602E217F30729
:10250000A0F42E1B3F0B2817390778F0AC014E5F63
:102510005F4F2417350748F04E0F5F1F5093A602F8
:102520004093A5028193919302C0E0E0F0E0CF01D7
:10253000DF91CF9108950F931F93CF93DF9300976F
:1025400009F48CC0FC013297138212820091A70219
:102550001091A8020115110581F420813181820FAB
:10256000931F2091A5023091A6022817390779F50B
:10257000F093A602E093A50271C0D80140E050E0BC
:10258000AE17BF0750F412962D913C911397AD01F1
:102590002115310509F1D901F3CF9D01DA0133830A
:1025A000228360817181860F971F8217930769F4D8
:1025B000EC0128813981260F371F2E5F3F4F318371
:1025C00020838A819B8193838283452B29F4F09316
:1025D000A802E093A70242C01396FC93EE931297D1
:1025E000ED01499159919E01240F351FE217F30720
:1025F00071F480819181840F951F029611969C93AE
:102600008E938281938113969C938E931297E0E030
:10261000F0E0D80112968D919C911397009719F0D4
:10262000F8018C01F6CF8D919C9198012E5F3F4F60
:10263000820F931F2091A5023091A6022817390717
:1026400069F4309729F41092A8021092A70202C0F0
:10265000138212821093A6020093A502DF91CF91FC
:102660001F910F910895A0E0B0E0E9E3F3E10C942D
:102670004011EC01009721F4CB010E940612B8C072
:10268000FC01E60FF71F9C0122503109E217F30706
:1026900008F4ACC0D9010D911C91119706171707CA
:1026A000B0F00530110508F49FC0C80104978617E3
:1026B000970708F499C002501109061B170B0193E4
:1026C00011936D937C93CF010E949B128DC05B018F
:1026D000A01AB10A4C01800E911EA091A702B091E0
:1026E000A80240E050E0E12CF12C109709F44AC018
:1026F000A815B905D1F56D907C901197630182E022
:10270000C80ED11CCA14DB0480F1A3014A195B096D
:102710006A0182E0C80ED11C1296BC9012971396E3
:10272000AC91B5E0CB16D10440F0B282A3835183C3
:102730004083D9016D937C930AC00E5F1F4FC30184
:10274000800F911FF90191838083EB2DFA2FE11403
:10275000F10431F0D7011396FC93EE93129744C025
:10276000F093A802E093A7023FC08D919C9111972E
:102770004817590708F4AC017D0112960D90BC91E1
:10278000A02DB3CF8091A5029091A602881599053E
:10279000E1F446175707C8F48091000190910101B8
:1027A000009741F48DB79EB7409104015091050107
:1027B000841B950BE817F907C8F4F093A602E09381
:1027C000A502F901718360830FC0CB010E9406123C
:1027D0007C01009759F0A801BE010E940214CE01AD
:1027E0000E949B12C70104C0CE0102C080E090E0AD
:1027F000CDB7DEB7EEE00C945C1181E090E0F89488
:102800000C942C14FB01DC0102C001900D9241508C
:102810005040D8F70895FB01DC0101900D92002093
:10282000E1F70895FB0151915523A9F0BF01DC01A7
:102830004D9145174111E1F759F4CD010190002068
:1028400049F04D9140154111C9F3FB014111EFCF02
:0C28500081E090E001970895F894FFCF1C
:10285C000000A90280000000000079019705110119
:10286C00C001420120013401564D4450565F317C69
:10287C00315F564D4450560D0A005041204C657640
:10288C00656C203D20005265636569766572204950
:10289C006E697469616C69736564002F006600432E
:1028AC006F6D6D756E69636174696F6E20726174A2
:0E28BC0065203D2000487A0052656164790075
:107800000C94343C0C94513C0C94513C0C94513CE1
:107810000C94513C0C94513C0C94513C0C94513CB4
:107820000C94513C0C94513C0C94513C0C94513CA4
:107830000C94513C0C94513C0C94513C0C94513C94
:107840000C94513C0C94513C0C94513C0C94513C84
:107850000C94513C0C94513C0C94513C0C94513C74
:107860000C94513C0C94513C11241FBECFEFD8E036
:10787000DEBFCDBF11E0A0E0B1E0ECE9FFE702C060
:1078800005900D92A230B107D9F712E0A2E0B1E065
:1078900001C01D92AD30B107E1F70E942D3D0C945F
:1078A000CC3F0C94003C982F959595959595959582
:1078B000905D8F708A307CF0282F295A8091C0000B
:1078C00085FFFCCF9093C6008091C00085FFFCCF60
:1078D0002093C6000895282F205DF0CF982F809127
:1078E000C00085FFFCCF9093C6000895EF92FF92F1
:1078F0000F931F93EE24FF2487018091C00087FD22
:1079000017C00894E11CF11C011D111D81E4E8164B
:1079100082E4F8068FE0080780E0180770F3E09132
:107920000401F091050109958091C00087FFE9CF1E
:107930008091C6001F910F91FF90EF9008950E94D3
:10794000763C982F8091C00085FFFCCF9093C600B5
:1079500091362CF490330CF09053892F089597555D
:10796000892F08951F930E949F3C182F0E949F3CCF
:107970001295107F810F1F9108951F93182F882350
:1079800021F00E94763C1150E1F71F9108951F935A
:10799000182F0E94763C803249F0809103018F5F5E
:1079A000809303018530C1F01F9108958091C0003C
:1079B00085FFFCCF84E18093C6008091C00085FFE5
:1079C000FCCF1093C6008091C00085FFFCCF80E102
:1079D0008093C6001F910895E0910401F091050184
:1079E00009951F9108950E94763C803241F0809164
:1079F00003018F5F80930301853081F008958091AA
:107A0000C00085FFFCCF84E18093C6008091C00058
:107A100085FFFCCF80E18093C6000895E0910401CA
:107A2000F09105010995089540E951E08823A1F0FE
:107A30002D9A28EE33E0FA013197F1F721503040CA
:107A4000D1F72D9828EE33E0FA013197F1F7215064
:107A50003040D1F7815061F708953F924F925F9285
:107A60006F927F928F929F92AF92BF92CF92DF924E
:107A7000EF92FF920F931F93CF93DF93000080E16B
:107A80008093C4001092C50088E18093C10086E015
:107A90008093C2005098589A259A81E00E94143D24
:107AA00024E1F22E9EE1E92E85E9D82E0FE0C02ECA
:107AB00010E1B12EAA24A394B1E49B2EA6E58A2E50
:107AC000F2E57F2EE0E26E2E79E4572E63E5462E36
:107AD00050E5352E0E94763C8033B1F18133B9F107
:107AE000803409F46FC0813409F476C0823409F41B
:107AF00085C0853409F488C0803531F1823521F1A3
:107B0000813511F1853509F485C0863509F48DC0BC
:107B1000843609F496C0843709F403C1853709F423
:107B200072C1863709F466C0809103018F5F80932C
:107B30000301853079F6E0910401F0910501099582
:107B40000E94763C803351F60E94F33CC3CF0E94E2
:107B5000763C803249F78091C00085FFFCCFF092DF
:107B6000C6008091C00085FFFCCF9092C600809136
:107B7000C00085FFFCCF8092C6008091C00085FFC9
:107B8000FCCF7092C6008091C00085FFFCCF609250
:107B9000C6008091C00085FFFCCF5092C600809146
:107BA000C00085FFFCCF4092C6008091C00085FFD9
:107BB000FCCF3092C6008091C00085FFFCCFB09210
:107BC000C60088CF0E94763C863808F4BDCF0E945C
:107BD000763C0E94F33C7ECF0E94763C803809F4CC
:107BE0009CC0813809F40BC1823809F43CC1883942
:107BF00009F48FC080E00E94C73C6CCF84E10E94F2
:107C0000BD3C0E94F33C66CF85E00E94BD3C0E94D3
:107C1000F33C60CF0E94763C809306010E94763C44
:107C2000809307010E94F33C55CF0E94763C80333D
:107C300009F41DC183E00E94BD3C80E00E94C73C66
:107C400049CF0E94763C809309020E94763C809343
:107C5000080280910C028E7F80930C020E94763C79
:107C6000853409F415C18091080290910902892B8D
:107C700089F000E010E00E94763CF801E85FFE4FDA
:107C800080830F5F1F4F80910802909109020817AF
:107C9000190788F30E94763C803209F045CF809125
:107CA0000C0280FF01C16091060170910701660F0F
:107CB000771F7093070160930601A0910802B091AD
:107CC00009021097C9F0E8E0F1E09B01AD014E0F09
:107CD0005F1FF999FECF32BD21BD819180BDFA9A17
:107CE000F99A2F5F3F4FE417F50799F76A0F7B1F4B
:107CF00070930701609306018091C00085FFFCCF5F
:107D0000F092C6008091C00085FFFCCFB092C60003
:107D1000E1CE83E00E94C73CDDCE82E00E94C73CFA
:107D2000D9CE0E94763C809309020E94763C8093D3
:107D300008028091060190910701880F991F909386
:107D40000701809306010E94763C853409F4A6C0A1
:107D500080910C028E7F80930C020E94763C8032D0
:107D600009F0B8CE8091C00085FFFCCFF092C6002C
:107D7000609108027091090261157105B9F140E046
:107D800050E080910C02A82FA170B82FB27011C0E2
:107D9000BB2309F45CC0E0910601F0910701319624
:107DA000F0930701E09306014F5F5F4F46175707B7
:107DB000E8F4AA2369F3F999FECF209106013091E6
:107DC000070132BD21BDF89A90B58091C00085FFB2
:107DD000FCCF9093C6002F5F3F4F30930701209355
:107DE00006014F5F5F4F4617570718F38091C00099
:107DF00085FDE5CE8091C00085FFF8CFE0CE81E023
:107E00000E94C73C67CE0E94763C803209F08CCE3F
:107E10008091C00085FFFCCFF092C6008091C00029
:107E200085FFFCCFE092C6008091C00085FFFCCFAB
:107E3000D092C6008091C00085FFFCCFC092C600E2
:107E40008091C00085FFFCCFB092C60043CEE09188
:107E50000601F091070194918091C00085FFFCCF4D
:107E60009093C6009CCF80E10E94C73C33CE0E9415
:107E7000763C0E94763C182F0E94763C112309F430
:107E800083C0113009F484C08FE00E94C73C22CE29
:107E900080910C02816080930C02E5CE80910C02EF
:107EA000816080930C0259CF809107018823880F4D
:107EB000880B8A2180930B02809106019091070123
:107EC000880F991F90930701809306018091080203
:107ED00080FF09C080910802909109020196909359
:107EE000090280930802F894F999FECF1127E091D6
:107EF0000601F0910701C8E0D1E08091080290915D
:107F00000902103091F40091570001700130D9F34B
:107F100003E000935700E89500915700017001308D
:107F2000D9F301E100935700E89509901990009169
:107F3000570001700130D9F301E000935700E89534
:107F40001395103498F011270091570001700130FB
:107F5000D9F305E000935700E895009157000170B0
:107F60000130D9F301E100935700E895329602976A
:107F700009F0C7CF103011F00296E5CF112480919F
:107F8000C00085FFB9CEBCCE8EE10E94C73CA2CD19
:0C7F900085E90E94C73C9ECDF894FFCF0D
:027F9C00800063
:040000030000780081
:00000001FF