:100000000C94E4000C940C010C940C010C940C0165
:100010000C940C010C940C010C940C010C940C012C
:100020000C940C010C940C010C940C010C94BB036B
:100030000C940C010C940C010C940C010C940C010C
:100040000C94AF090C940C010C94850C0C94B70C17
:100050000C940C010C940C010C940C010C940C01EC
:100060000C940C010C940C011112131415160A0BAC
:100070000C0D0E0F00010203040500000008000231
:10008000010000030407000000000000000001025E
:100090000408102040800102040810200102040816
:1000A00010200404040404040404020202020202F4
:1000B00003030303030300000000250028002B00B6
:1000C00000000000240027002A0000407A10F35AA4
:1000D00000A0724E18090010A5D4E80000E8764888
:1000E000170000E40B54020000CA9A3B000000E134
:1000F000F505000080969800000040420F000000C7
:10010000A08601000000102700000000E8030000A6
:1001100000006400000000000A0000000000010070
:10012000000000002C76D888DC674F0823DFC1DF91
:10013000AE59E1B1B796E5E3E453C63AE651997694
:1001400096E8E6C28426EB898C9B62ED407C6FFCCE
:10015000EFBC9C9F40F2BAA56FA5F490055A2AF710
:100160005C936B6CF9676DC11BFCE0E40D47FEF519
:1001700020E6B500D0ED902E030094357705008081
:10018000841E080000204E0A000000C80C333333E0
:10019000330F986E12831141EF8D2114893BE65580
:1001A00016CFFEE6DB18D1844B381BF77C1D901D63
:1001B000A4BBE424203284725E228100C9F124ECC5
:1001C000A1E53D277703E70C11241FBECFEFD8E050
:1001D000DEBFCDBF11E0A0E0B1E0EEECFCE202C07A
:1001E00005900D92AE36B107D9F722E0AEE6B1E048
:1001F00001C01D92AB35B207E1F711E0C8ECD1E0C8
:1002000004C02297FE010E941811C43CD107C9F70F
:100210000E942B0D0C9465160C940000CF92DF9277
:10022000EF92FF920F931F93CF93DF93CDB7DEB77B
:100230002A970FB6F894DEBF0FBECDBF8C017B01AD
:100240006A010E94630F9A838983AC014F5F5F4FFD
:10025000B701C8010E94470F9C838B83AC014F5F9D
:100260005F4FB701C8010E94470F9E838D83F6013F
:10027000EE0FFF1FEC0FFD1F818192812A960FB6B2
:10028000F894DEBF0FBECDBFDF91CF911F910F91CC
:10029000FF90EF90DF90CF900895EF92FF920F9331
:1002A0001F93CF93DF93CDB7DEB72C970FB6F8949B
:1002B000DEBF0FBECDBF26E040E052EC61E070E053
:1002C0008AEB91E00E94230C8EE691E00E9449099E
:1002D0009EE3E92E2CE9F22E07E01EED2BEC30E038
:1002E00040E050E061E08EE691E00E9415080DE3E9
:1002F0001CE927E03EED4BEC50E060E070E08EE65C
:1003000091E00E94DA0763E08EE691E00E94E8083F
:100310008EE691E00E9401094AE0682FCE0107961F
:100320000E94910E6AE071E0CE0101960E94630E78
:10033000BE01695F7F4FCE0101960E941A0FBC017A
:100340008AEB91E00E948A0DCE0101960E94F50D84
:10035000CE0107960E94F50D8EE691E00E94A2085C
:100360000E94F9096093840170938501809386014E
:100370009093870163E070E081E891E00E941105AD
:1003800065E070E08EE791E00E9411056AE570E09B
:1003900081E891E00E944A056CED75E08EE791E0FE
:1003A0000E94170566E171E08AEB91E00E949C0DC6
:1003B0002C960FB6F894DEBF0FBECDBFDF91CF9164
:1003C0001F910F91FF90EF9008958F929F92AF929F
:1003D000BF92CF92DF92EF92FF921F93CF93DF9362
:1003E000CDB7DEB7C454D1090FB6F894DEBF0FBE47
:1003F000CDBF16E064E170E080E090E00E94280A42
:10040000E6E4F1E0DE011196812F01900D928A95CC
:10041000E1F78EE691E00E941C0746E0BE016F5FA7
:100420007F4F8EE691E00E94A9078EE691E00E9440
:10043000A2088EE691E00E94CA078823D9F240E222
:10044000BE016F5F7F4F8EE691E00E94CE078981EB
:10045000882349F0809188019091890101969093B9
:100460008901809388016BE271E0CE018D960E9434
:10047000630EBE016F5F7F4FCE01C3960E94630E75
:1004800040E050E0BE01635D7F4FCE01C3960E9405
:100490000E017C0165E671E0CE01C9960E94630EF3
:1004A000BE016F5F7F4FCE01CF960E94630E40E08A
:1004B00050E0BE01675C7F4FCE01CF960E940E01D7
:1004C0006C01BE016F5F7F4FCE0187960E94630E65
:1004D000A6014F5F5F4F9701BE01695D7F4FCE015F
:1004E00081960E94670FCE0181960E94AC0F6B012E
:1004F0007C01CE0181960E94F50DCE0187960E9467
:10050000F50DCE01CF960E94F50DCE01C9960E9441
:10051000F50DCE01C3960E94F50DCE018D960E9479
:10052000F50D6BE271E0CE018D960E94630EBE0167
:100530006F5F7F4FCE01C3960E94630E41E050E093
:10054000BE01635D7F4FCE01C3960E940E015C0128
:100550006AE471E0CE01C9960E94630EBE016F5F2E
:100560007F4FCE01CF960E94630E40E050E0BE0167
:10057000675C7F4FCE01CF960E940E014C01BE01F9
:100580006F5F7F4FCE0187960E94630EA4014F5F7D
:100590005F4F9501BE01695D7F4FCE0181960E943C
:1005A000670FCE0181960E94AC0F4B015C01CE011A
:1005B00081960E94F50DCE0187960E94F50DCE0121
:1005C000CF960E94F50DCE01C9960E94F50DCE0181
:1005D000C3960E94F50DCE018D960E94F50DB401D3
:1005E00081E891E00E944A05B6018EE791E00E9401
:1005F00017058091880190918901883E93400CF401
:1006000063C00E94F9094B015C01609188017091FF
:100610008901882777FD8095982F0E9422106B0111
:100620007C018091840190918501A0918601B09117
:100630008701A5019401281B390B4A0B5B0BCA01EA
:10064000B90128EE33E040E050E00E94CA10CA0130
:10065000B9010E9420109B01AC01C701B6010E94A4
:10066000B80FAB01BC0122E0CE0187960E94BE0EFE
:100670006DE271E0CE0181960E94630EBE01695D5C
:100680007F4FCE0181960E941A0F63E471E00E94B1
:100690002D0FBC018AEB91E00E948A0DCE0181965C
:1006A0000E94F50DCE0187960E94F50D10928901EA
:1006B000109288010E94F90960938401709385016A
:1006C0008093860190938701CC5BDF4F0FB6F8943F
:1006D000DEBF0FBECDBFDF91CF911F91FF90EF9096
:1006E000DF90CF90BF90AF909F908F90089581E85A
:1006F00091E00E9477048EE791E00E9477044AE03F
:1007000069E08EE691E00C940A07CF93CFB7F89496
:1007100080918A01811127C0ECEAF0E08491E8E938
:10072000F0E09491E82FF0E0EE0FFF1FE054FF4F50
:10073000A591B4918C91892321F461E08AE00E9413
:100740000A0B61E08AE00E94D10A8CB580618CBD01
:100750008CB580648CBD61E08DE00E94D10A61E0BF
:100760008BE00E94D10A80918A018F5F80938A0179
:10077000CFBFCF9108951F920F920FB60F92112401
:100780002F933F934F935F936F937F938F939F9399
:10079000AF93BF93EF93FF9380918C0187FF05C0C8
:1007A00010928500109284001AC020918C0133278A
:1007B00027FD309580918B0190E0281739077CF454
:1007C00080918C01992787FD9095FC01EE0FFF1F0A
:1007D000E80FF91FE357FE4F808186FD15C0809119
:1007E0008C018F5F80938C0120918C01332727FD32
:1007F000309580918B0190E028173907BCF48091E7
:100800008C018C305CF112C080918C01992787FD9E
:100810009095FC01EE0FFF1FE80FF91FE357FE4F05
:10082000808160E08F730E940A0BD9CF8091840091
:1008300090918500049680349C4918F480E49CE9EA
:1008400005C0809184009091850004969093890062
:10085000809388008FEF80938C0138C020918400B2
:100860003091850080918C01992787FD9095FC013E
:10087000EE0FFF1FE80FF91FE357FE4F81819281B2
:10088000820F931F909389008093880080918C0140
:10089000992787FD9095FC01EE0FFF1FE80FF91FC8
:1008A000E357FE4F808186FF11C080918C0199270C
:1008B00087FD9095FC01EE0FFF1FE80FF91FE3572E
:1008C000FE4F808161E08F730E940A0BFF91EF91D0
:1008D000BF91AF919F918F917F916F915F914F9158
:1008E0003F912F910F900FBE0F901F901895209160
:1008F0008B012C30A0F431E0320F30938B01FC01DE
:100900002083822F90E0FC01EE0FFF1FE80FF91FFC
:10091000E357FE4F88EB9BE09283818308952FEF8E
:10092000FC0120830895DF92EF92FF920F931F93B3
:10093000CF93DF93EC01D62E7A01890188818C3028
:1009400008F066C061E08D2D0E94D10A8881A82F31
:10095000B0E0FD01EE0FFF1FEA0FFB1FE357FE4F54
:100960002D2D2F739081907C922B908360E272E00A
:100970006E197F0977FF02C06D5F7F4F7595679590
:1009800075956795698340E659E0401B510B57FF09
:1009900002C04D5F5F4F55954795559547954A83E2
:1009A0006CE00E94BE109CE0899FB001112420E001
:1009B00030E0A901460F571FFA01EE0FFF1FE40FA9
:1009C000F51FE357FE4F908196FD16C02F5F3F4FF6
:1009D0002C30310571F781110FC01092800082E038
:1009E000809381001092850010928400B19A8091CA
:1009F0006F00826080936F00888190E0FC01EE0FB1
:100A0000FF1FE80FF91FE357FE4F8081806480834A
:100A10008881DF91CF911F910F91FF90EF90DF9030
:100A2000089520E639E040E252E00C949304FC0182
:100A300080818C3070F5918128E830E0291B3109E4
:100A400097FD3395220F331F220F331F6217730751
:100A50007CF0928128E532E0291B310997FD33951E
:100A6000220F331F220F331F621773070CF49B01F1
:100A700022503109220F331F4FB7F89490E0FC0148
:100A8000EE0FFF1FE80FF91FE357FE4F328321835C
:100A90004FBF08954F925F926F927F92AF92BF9235
:100AA000CF92DF92EF92FF920F931F93CF93DF933A
:100AB000EC01603282E078070CF040C077FD06C0A0
:100AC000653B71052CF064EB70E002C060E070E003
:100AD000898128E830E0281B310987FD3395220FF2
:100AE000331F220F331F5901CC24B7FCC094DC2CD8
:100AF000882777FD8095982F2A8148E552E0421B90
:100B0000510927FD5395440F551F440F551F2A01C6
:100B1000662457FC6094762C7F926F925F924F927E
:100B200014EBE12EF12C00E010E020E030E0A90110
:100B30000E94AE0D0F900F900F900F90CE01DF919D
:100B4000CF911F910F91FF90EF90DF90CF90BF90CA
:100B5000AF907F906F905F904F900C9417058EBD73
:100B600000000DB407FEFDCF8EB508952CB52F7D86
:100B70002CBD2CB5237F2CBD2CB52C7F2CBD2DB5C9
:100B800021602DBDFC0181810E940A0B85E090E06F
:100B90000C94620AFC018081918189130C940A0BE8
:100BA000089560E00C94B60561E00C94B605EF92F0
:100BB000FF921F93CF93DF931F92CDB7DEB77C01D7
:100BC00069830E94D1056981862F8F710E94AF05CC
:100BD0008FEF0E94AF05182FC7010E94D405812F07
:100BE0000F90DF91CF911F91FF90EF900895CF92DA
:100BF000DF92EF92FF920F931F93CF93DF9300D07A
:100C00001F92CDB7DEB78C01F22E4A835B836983D6
:100C10000E94D1056981862F8F7180620E94AF0585
:100C2000E82E4A81C42E5B81D52EF40EFC1431F0DF
:100C3000F60181916F010E94AF05F8CFC8010E94B3
:100C4000D4058E2D0F900F900F90DF91CF911F91B3
:100C50000F91FF90EF90DF90CF900895EF92FF9269
:100C60001F93CF93DF9300D0CDB7DEB77C014A83CB
:100C700069830E94D1056981862F8F7180620E94ED
:100C8000AF05182F4A81842F0E94AF05C7010E942B
:100C9000D405812F0F900F90DF91CF911F91FF907E
:100CA000EF900895AF92BF92DF92EF92FF920F9371
:100CB0001F93CF93DF9300D01F92CDB7DEB78C0187
:100CC000FC01E380F42EE41608F4FE2CF801848184
:100CD000811102C0EF1801C0E12CC80129836A8389
:100CE0007B830E94D1052981822F0E94AF05D82ED7
:100CF0006A81A62E7B81B72EF60EFA1431F0F5012B
:100D000081915F010E94AF05F8CFEE2029F080E0CD
:100D10000E94AF05EA94F9CFC8010E94D4058D2D39
:100D20000F900F900F90DF91CF911F910F91FF9037
:100D3000EF90DF90BF90AF900895AF92BF92DF9297
:100D4000EF92FF920F931F93CF93DF9300D0CDB715
:100D5000DEB78C01FC01E380F42EE41608F4FE2CCF
:100D6000F8018481811102C0EF1801C0E12CC80193
:100D700069837A830E94D10581E60E94AF05D82E4F
:100D80006981A62E7A81B72EF60EFA1439F08FEF0C
:100D90000E94AF05F50181935F01F7CFEE2029F0A6
:100DA0008FEF0E94AF05EA94F9CFC8010E94D405E5
:100DB0008D2D0F900F90DF91CF911F910F91FF908C
:100DC000EF90DF90BF90AF900895EF92FF921F9346
:100DD000CF93DF931F92CDB7DEB77C0169830E946A
:100DE000D1056981862F0E94AF05182FC7010E9487
:100DF000D405812F0F90DF91CF911F91FF90EF903D
:100E0000089562EE0C94E50661EE0C94E5066FEF32
:100E10000C94E506FC0160834183128280E28383A7
:100E2000148285E0828715820895462F603808F085
:100E30004FE765E00C942E06CF93DF93EC0160E062
:100E40000E94CA058B859C850E94620A6DE1CE01D5
:100E50000E94D70581FF07C08B859C850E94620A8E
:100E6000CE010E94040760E0CE010E94D705482F02
:100E70004E7F60E0CE010E942E0662E0CE010E940D
:100E8000D705E4E7F0E0E49121E030E001C0220F73
:100E9000EA95EAF7822B482F62E0CE01DF91CF91ED
:100EA0000C942E06CF93DF93EC0160E00E94D705EF
:100EB00081FD12C060E0CE010E94D705482F42603C
:100EC00060E0CE010E942E0665E070E080E090E0D8
:100ED000DF91CF910C94280ADF91CF9108950F9361
:100EE000CF93DF93EC01222311F020EB01C020EA25
:100EF000CE010E945206002339F061E0CE01DF915D
:100F0000CF910F910C94CA05DF91CF910F91089565
:100F10000F93CF93DF93EC0101E00E946F07CE01A6
:100F20000E9407078073D9F360E0CE010E94CA05D2
:100F300040E767E0CE010E942E0684FF05C0CE0187
:100F40000E94040780E001C081E0DF91CF910F9102
:100F5000089520E00C9488070F931F93CF93DF939D
:100F60008C01EB0167E10E94D70580FD0BC0209743
:100F700059F0C8010E94070790E095958795877002
:100F8000888302C080E001C081E0DF91CF911F9192
:100F90000F91089560E070E00C94AC07CF93DF935D
:100FA000EC010E949D0640E767E0CE01DF91CF9102
:100FB0000C942E06EF92FF920F931F93CF93DF9323
:100FC000CDB7DEB728970FB6F894DEBF0FBECDBF02
:100FD0007C0109831A832B833C834D835E836F835B
:100FE0007887FC012285AE014F5F5F4F6AE00E9467
:100FF000F705F7012285AE014F5F5F4F60E1C70142
:101000000E94F705F701438161E1C7010E942E06A6
:1010100028960FB6F894DEBF0FBECDBFDF91CF91FB
:101020001F910F91FF90EF900895BF92CF92DF92A2
:10103000EF92FF920F931F93CF93DF93CDB7DEB75D
:1010400028970FB6F894DEBF0FBECDBF6C01B62E49
:10105000E982FA820B831C832D833E834F8358875A
:1010600061110AC0FC01428550E0BE016F5F7F4FF5
:1010700005960E94641307C0F6E0F61708F436C020
:1010800081E0681308C0EB2DF0E0E259FF4F649156
:10109000F601228506C0E62FF0E0E259FF4F649189
:1010A00021E0AE014F5F5F4FC6010E94F7050B2D97
:1010B00010E0F801E859FF4F6491F6014381C60141
:1010C0000E942E0662E0C6010E94D705F801EC5886
:1010D000FF4F049121E030E001C0220F0A95EAF7AA
:1010E000822B482F62E0C6010E942E0628960FB67A
:1010F000F894DEBF0FBECDBFDF91CF911F910F914E
:10110000FF90EF90DF90CF90BF9008951F93CF9303
:10111000DF93EC01162F62E00E94D705E12FF0E08B
:10112000EC58FF4FE49141E050E001C0440FEA95D4
:10113000EAF74095482362E0CE01DF91CF911F91FD
:101140000C942E06CF93DF93EC010E94520760E0CF
:10115000CE010E94D705482F416060E0CE010E9479
:101160002E0640E767E0CE010E942E0661E0CE0128
:101170000E94CA058D81882349F02A85AE014B5F04
:101180005F4F6AE0CE010E94F70504C060E0CE0127
:101190000E9486086DE1CE010E94D70581FF05C03F
:1011A000CE01DF91CF910C940407DF91CF91089588
:1011B000CF93DF93EC010E94D10580E50E94AF053B
:1011C00083E70E94AF05CE01DF91CF910C94D40547
:1011D0001F93CF93DF93EC01162F66E00E94D70593
:1011E000887F143020F4612F660F6F5F01C067E0C5
:1011F000462F482B66E0CE01DF91CF911F910C94D2
:101200002E0666E00E94D705867086950895EF92B7
:10121000FF920F931F93CF93DF931F92CDB7DEB74B
:101220007C018B0166E00E94D705582F577D023064
:10123000110531F450620BE910E020E030E00DC000
:101240000130110529F005E510E020E030E005C08F
:10125000586001E410E020E030E0F70103871487D4
:1012600025873687452F66E0C70159830E942E06E1
:1012700066E0C7010E94D70591E05981851390E08F
:10128000892F0F90DF91CF911F910F91FF90EF90D9
:101290000895CF93DF93EC0188819981891719F024
:1012A00061E00E94D10A89819881981719F061E064
:1012B0000E94D10A0E94850360E0CE010E94CA0507
:1012C00061E0CE010E94B60565E070E080E090E04C
:1012D0000E94280A4CE060E0CE010E942E064FE5F5
:1012E00064E0CE010E942E0662E070E0CE010E9412
:1012F0000709882311F081E08A8360E070E0CE0165
:101300000E940709CE010E94D80840E06DE1CE019D
:101310000E942E0640E06CE1CE010E942E0640E7BE
:1013200067E0CE010E942E066CE4CE010E941507F4
:10133000CE010E940107CE010E940407CE010E9447
:10134000520760E0CE010E94D705482F4E7F60E033
:10135000CE010E942E0680E0DF91CF9108951F926A
:101360000F920FB60F9211242F933F938F939F9359
:10137000AF93BF938091B2019091B301A091B4015A
:10138000B091B5013091B10123E0230F2D3720F446
:101390000196A11DB11D05C026E8230F0296A11DCF
:1013A000B11D2093B1018093B2019093B301A0933A
:1013B000B401B093B5018091B6019091B701A091AD
:1013C000B801B091B9010196A11DB11D8093B6017C
:1013D0009093B701A093B801B093B901BF91AF91B9
:1013E0009F918F913F912F910F900FBE0F901F9063
:1013F00018952FB7F8946091B2017091B301809164
:10140000B4019091B5012FBF08953FB7F894809132
:10141000B6019091B701A091B801B091B90126B57C
:10142000A89B05C02F3F19F00196A11DB11D3FBF1C
:101430006627782F892F9A2F620F711D811D911DAC
:1014400042E0660F771F881F991F4A95D1F70895CC
:101450008F929F92AF92BF92CF92DF92EF92FF92C4
:101460006B017C010E94050A4B015C01C114D1048F
:10147000E104F104F1F00E94B70F0E94050A681917
:1014800079098A099B09683E73408105910570F3CB
:1014900021E0C21AD108E108F10888EE880E83E045
:1014A000981EA11CB11CC114D104E104F10429F758
:1014B000DDCFFF90EF90DF90CF90BF90AF909F90E7
:1014C0008F9008958230910538F0880F991F880F0A
:1014D000991F05970197F1F70895789484B5826074
:1014E00084BD84B5816084BD85B5826085BD85B5C8
:1014F000816085BDEEE6F0E0808181608083E1E877
:10150000F0E01082808182608083808181608083AE
:10151000E0E8F0E0808181608083E1EBF0E08081B1
:1015200084608083E0EBF0E0808181608083EAE783
:10153000F0E080818460808380818260808380810C
:10154000816080838081806880831092C1000895CB
:10155000833081F028F4813099F08230A1F0089531
:101560008730A9F08830B9F08430D1F480918000C0
:101570008F7D03C0809180008F77809380000895D5
:1015800084B58F7702C084B58F7D84BD0895809126
:10159000B0008F7703C08091B0008F7D8093B00042
:1015A0000895CF93DF9390E0FC01E257FF4F249121
:1015B000FC01EE55FF4F8491882349F190E0880F9C
:1015C000991FFC01E054FF4FA591B4918A549F4F9D
:1015D000FC01C591D4919FB7611108C0F8948C911A
:1015E000209582238C93888182230AC0623051F433
:1015F000F8948C91322F309583238C938881822BA1
:10160000888304C0F8948C91822B8C939FBFDF91C8
:10161000CF9108950F931F93CF93DF931F92CDB770
:10162000DEB7282F30E0F901E658FF4F8491F90129
:10163000E257FF4F1491F901EE55FF4F049100233B
:10164000C9F0882321F069830E94A80A6981E02FEC
:10165000F0E0EE0FFF1FEA54FF4FA591B4919FB742
:10166000F8948C91611103C01095812301C0812BE6
:101670008C939FBF0F90DF91CF911F910F91089591
:10168000FC01818D228D90E0805C9F4F821B91092F
:101690008F7399270895FC01918D828D981731F0F1
:1016A000828DE80FF11D858D90E008958FEF9FEFFB
:1016B0000895FC01918D828D981761F0828DDF0174
:1016C000A80FB11D5D968C91928D9F5F9F73928F35
:1016D00090E008958FEF9FEF08958DED9CE0892BAA
:1016E00049F080E090E0892B29F00E94DD0C811107
:1016F0000C9400000895FC01848DDF01A80FB11D3A
:10170000A35ABF4F2C91848D90E001968F73992737
:10171000848FA689B7892C93A089B1898C91806424
:101720008C93938D848D981306C00288F389E02DE5
:1017300080818F7D80830895CF93DF93EC01888D26
:101740008823C9F0EA89FB89808185FD05C0A889C5
:10175000B9898C9186FD0FC00FB607FCF5CF80814B
:1017600085FFF2CFA889B9898C9185FFEDCFCE0195
:101770000E947B0BE7CFDF91CF910895CF92DF924C
:10178000FF920F931F93CF93DF931F92CDB7DEB7D6
:101790006C0181E0D60158968C9358975B969C918A
:1017A0005B975C968C915C97981307C05096ED916F
:1017B000FC915197808185FD2EC0F601038D10E0CC
:1017C0000F5F1F4F0F731127F02EF601848DF81253
:1017D00011C00FB607FCF9CFD6015096ED91FC91E0
:1017E0005197808185FFF1CFC60169830E947B0BF1
:1017F0006981EBCF838DE80FF11DE35AFF4F6083C2
:10180000D6015B960C935B975296ED91FC915397A2
:10181000808180620CC0D6015696ED91FC9157975D
:1018200060835096ED91FC91519780818064808314
:1018300081E090E00F90DF91CF911F910F91FF9089
:10184000DF90CF900895BF92CF92DF92EF92FF92F8
:10185000CF93DF93EC016A017B01B22EE889F9890D
:1018600082E08083411581EE580761057105A1F082
:1018700060E079E08DE390E0A70196010E94CA1034
:1018800021503109410951095695479537952795BA
:10189000211580E1380798F0E889F989108260E81D
:1018A00074E88EE190E0A70196010E94CA102150D1
:1018B0003109410951095695479537952795EC858A
:1018C000FD853083EE85FF852083188EEC89FD89A8
:1018D000B082EA89FB89808180618083EA89FB8903
:1018E000808188608083EA89FB8980818068808329
:1018F000EA89FB8980818F7D8083DF91CF91FF9082
:10190000EF90DF90CF90BF9008951F920F920FB687
:101910000F9211242F938F939F93EF93FF93E09156
:10192000CA01F091CB018081E091D001F091D10109
:1019300082FD12C090818091D3018F5F8F732091BF
:10194000D401821751F0E091D301F0E0E654FE4F4C
:10195000958F8093D30101C08081FF91EF919F917A
:101960008F912F910F900FBE0F901F9018951F927F
:101970000F920FB60F9211242F933F934F935F93C3
:101980006F937F938F939F93AF93BF93EF93FF9347
:101990008AEB91E00E947B0BFF91EF91BF91AF9199
:1019A0009F918F917F916F915F914F913F912F9177
:1019B0000F900FBE0F901F9018958AEB91E00E9438
:1019C000400B21E0892B09F420E0822F089510922A
:1019D000BD011092BC0188EE93E0A0E0B0E08093DE
:1019E000BE019093BF01A093C001B093C10180E5F7
:1019F00091E09093BB018093BA0185EC90E09093C5
:101A0000C7018093C60184EC90E09093C901809354
:101A1000C80180EC90E09093CB018093CA0181ECE7
:101A200090E09093CD018093CC0182EC90E0909374
:101A3000CF018093CE0186EC90E09093D10180930A
:101A4000D0011092D3011092D4011092D5011092BE
:101A5000D601089508950E946D0A0E942A0D0E94E1
:101A60004D01CDE6DBE00E94E5012097E1F30E9405
:101A70006D0BF9CFCF92DF92EF92FF920F931F93EE
:101A8000CF93DF937C016A01EB0100E010E00C15BD
:101A90001D0571F06991D701ED91FC910190F081E4
:101AA000E02DC7010995892B19F00F5F1F4FEFCF6C
:101AB000C801DF91CF911F910F91FF90EF90DF90C0
:101AC000CF9008956115710581F0DB010D90002024
:101AD000E9F7AD0141505109461B570BDC01ED916F
:101AE000FC910280F381E02D099480E090E008955C
:101AF000DC01ED91FC91DB0114964D915C91159701
:101B00006D917C910280F381E02D09946CE571E088
:101B10000C94620D0F931F93CF93DF93EC010E94FF
:101B2000780D8C01CE010E94860D800F911FDF91F0
:101B3000CF911F910F9108950F931F93CF93DF9330
:101B4000EC010E94620D8C01CE010E94860D800F77
:101B5000911FDF91CF911F910F9108954F925F9246
:101B60006F927F92AF92BF92CF92DF92EF92FF92ED
:101B70000F931F93CF93DF93CDB7DEB729013A01BF
:101B8000621B730B840B950B29893A894B895C89FD
:101B90002A193B094C095D09298B3A8B4B8B5C8BCD
:101BA0009B01AC0169897A898B899C890E94AE105E
:101BB000E418F50806091709A80197010E94EC101E
:101BC0002A0D3B1D4C1D5D1DCA01B901DF91CF914E
:101BD0001F910F91FF90EF90DF90CF90BF90AF904B
:101BE0007F906F905F904F900895FC01808191816C
:101BF0000C94E411CF93DF93EC01888199810097D5
:101C000011F00E94E411198218821D821C821B822D
:101C10001A82DF91CF9108950F931F93CF93DF9393
:101C2000EC018B016F5F7F4F888199810E94731255
:101C3000009731F0998388831B830A8381E001C078
:101C400080E0DF91CF911F910F910895CF93DF93A3
:101C5000EC0188819981892B29F08A819B818617E3
:101C6000970760F4CE010E940C0E882341F08C810E
:101C70009D81892B19F4E881F981108281E0DF913F
:101C8000CF910895EF92FF920F931F93CF93DF931D
:101C9000EC017B018A01BA010E94260E811104C069
:101CA000CE010E94FA0D07C01D830C83B701888105
:101CB00099810E946D13CE01DF91CF911F910F91F9
:101CC000FF90EF900895FC0111821082138212821E
:101CD000158214826115710559F0FB0101900020F5
:101CE000E9F7AF0141505109461B570B0C94420EC6
:101CF0000895CF93DF93EC016115710561F0FB014D
:101D000001900020E9F7AF0141505109461B570BE4
:101D10000E94420E02C00E94FA0DCE01DF91CF91C7
:101D200008950F931F93CF93DF93CDB7DEB7299715
:101D30000FB6F894DEBF0FBECDBF8C01862FF80121
:101D400011821082138212821582148250E0BE0129
:101D50006F5F7F4F90E00E94A313BE016F5F7F4FC4
:101D6000C8010E94790E29960FB6F894DEBF0FBE07
:101D7000CDBFDF91CF911F910F910895EF92FF9208
:101D80000F931F93CF93DF93CDB7DEB7A1970FB615
:101D9000F894DEBF0FBECDBF7C01CB01BA01F701C5
:101DA00011821082138212821582148242E0420F45
:101DB0008E010F5F1F4F0E942B11BC01C7010E94B3
:101DC000790EA1960FB6F894DEBF0FBECDBFDF919E
:101DD000CF911F910F91FF90EF900895EF92FF9296
:101DE0000F931F93CF93DF93EC017B010C811D8137
:101DF0006115710511F480E016C04115510591F08F
:101E0000040F151FB8010E94260E8823A1F3288114
:101E100039818C819D81B701820F931F0E946D13C0
:101E20001D830C8381E0DF91CF911F910F91FF9073
:101E3000EF900895CF93DF93EC01FB01448155812E
:101E4000608171810E94EE0E811103C0CE010E945B
:101E5000FA0DCE01DF91CF910895CF93DF93EC017E
:101E60006115710569F0FB0101900020E9F7AF01F0
:101E700041505109461B570B0E94EE0E811103C0C1
:101E8000CE010E94FA0DCE01DF91CF910895CF933C
:101E9000DF93FC01848195814817590778F4C0814C
:101EA000D181FB0160817181CE01840F951F0E9459
:101EB0007413009719F08C1B9D0B02C08FEF9FEFDE
:101EC000DF91CF91089540E050E00C94470FBF920E
:101ED000CF92DF92EF92FF920F931F93CF93DF93F6
:101EE0006C017B01EA0189012417350720F48D2F4D
:101EF000E901042F182F6EE571E0C6010E94630E00
:101F0000D70114968D919C911597C817D907C8F4DD
:101F10008017910708F48C01D701ED91FC9111977E
:101F2000E00FF11FB08010826D917C916C0F7D1FCE
:101F3000C6010E94790ED701ED91FC91E00FF11FCF
:101F4000B082C601DF91CF911F910F91FF90EF906A
:101F5000DF90CF90BF900895FC0180819181009720
:101F600011F00C943D1360E070E0CB0108950895EA
:101F70000CD0BAC0B2D040F0A9D030F021F45F3F0D
:101F800019F09BC05111E4C09EC0BFD098F39923B3
:101F9000C9F35523B1F3951B550BBB27AA2762172D
:101FA0007307840738F09F5F5F4F220F331F441F72
:101FB000AA1FA9F333D00E2E3AF0E0E830D09150AA
:101FC0005040E695001CCAF729D0FE2F27D0660F97
:101FD000771F881FBB1F261737074807AB07B0E8D6
:101FE00009F0BB0B802DBF01FF2793585F4F2AF0EC
:101FF0009E3F510568F061C0ABC05F3FECF3983E77
:10200000DCF3869577956795B795F7959F5FC9F748
:10201000880F911D9695879597F90895E1E0660FD1
:10202000771F881FBB1F621773078407BA0720F04A
:10203000621B730B840BBA0BEE1F88F7E0950895B3
:10204000E89409C097FB3EF4909580957095619552
:102050007F4F8F4F9F4F9923A9F0F92F96E9BB2708
:102060009395F695879577956795B795F111F8CF84
:10207000FAF4BB0F11F460FF1BC06F5F7F4F8F4FEF
:102080009F4F16C0882311F096E911C0772321F0E5
:102090009EE8872F762F05C0662371F096E8862F7D
:1020A00070E060E02AF09A95660F771F881FDAF7D4
:1020B000880F9695879597F9089597F99F6780E817
:1020C00070E060E008959FEF80EC089500240A948A
:1020D0001616170618060906089500240A94121603
:1020E0001306140605060895092E0394000C11F436
:1020F000882352F0BB0F40F4BF2B11F460FF04C0E3
:102100006F5F7F4F8F4F9F4F089557FD9058440F3B
:10211000551F59F05F3F71F04795880F97FB991F46
:1021200061F09F3F79F08795089512161306140603
:10213000551FF2CF4695F1DF08C016161706180690
:10214000991FF1CF86957105610508940895E8946B
:10215000BB2766277727CB0197F90895DB018F937B
:102160009F930E940B11BF91AF91A29F800D911D73
:10217000A39F900DB29F900D11240895991B79E0B3
:1021800004C0991F961708F0961B881F7A95C9F707
:1021900080950895A1E21A2EAA1BBB1BFD010DC05C
:1021A000AA1FBB1FEE1FFF1FA217B307E407F50707
:1021B00020F0A21BB30BE40BF50B661F771F881FE3
:1021C000991F1A9469F760957095809590959B0179
:1021D000AC01BD01CF010895052E97FB1EF40094BC
:1021E0000E94031157FD07D00E94CA1007FC03D0BC
:1021F0004EF40C94031150954095309521953F4F26
:102200004F4F5F4F089590958095709561957F4FE2
:102210008F4F9F4F08950E941C11A59F900DB49F52
:10222000900DA49F800D911D11240895EE0FFF1FA6
:102230000590F491E02D0994A29FB001B39FC001D5
:10224000A39F700D811D1124911DB29F700D811DE2
:102250001124911D0895EF920F931F93CF93DF9355
:10226000E80147FF02C034E101C034E0E42FFF275A
:10227000E7FDF095F7FF03C0F195E195F109E32E35
:10228000022F2E2FAE010E94C813CE01DF91CF91F5
:102290001F910F91EF900895CF93DF9382309105B6
:1022A00010F482E090E0E0915902F0915A0220E0AF
:1022B00030E0A0E0B0E0309739F14081518148171B
:1022C0005907B8F04817590771F482819381109724
:1022D00029F013969C938E9312972CC090935A02D8
:1022E0008093590227C02115310531F04217530759
:1022F00018F0A901DB0101C0EF019A01BD01DF0166
:102300000280F381E02DD7CF21153105F9F0281B8C
:10231000390B2430310580F48A819B816115710568
:1023200021F0FB019383828304C090935A0280932F
:102330005902FE01329644C0FE01E20FF31F819361
:10234000919322503109398328833AC02091570252
:1023500030915802232B41F4209102013091030166
:1023600030935802209357022091000130910101CF
:102370002115310541F42DB73EB74091040150912C
:102380000501241B350BE0915702F0915802E2172A
:10239000F307A0F42E1B3F0B2817390778F0AC0188
:1023A0004E5F5F4F2417350748F04E0F5F1F509365
:1023B0005802409357028193919302C0E0E0F0E00D
:1023C000CF01DF91CF910895CF93DF93009709F468
:1023D00087C0FC01329713821282C0915902D091BA
:1023E0005A02209781F420813181280F391F809172
:1023F0005702909158028217930779F5F09358028B
:10240000E09357026DC0DE0120E030E0AE17BF0759
:1024100050F412964D915C9113979D014115510511
:1024200009F1DA01F3CFB383A28340815181840F94
:10243000951F8A179B0771F48D919C911197840FBA
:10244000951F02969183808312968D919C9113978C
:10245000938382832115310529F4F0935A02E09386
:1024600059023EC0D9011396FC93EE9312974D91F9
:102470005D91A40FB51FEA17FB0779F48081918164
:10248000840F951F0296D90111969C938E93828199
:10249000938113969C938E931297E0E0F0E08A81EB
:1024A0009B81009719F0FE01EC01F9CFCE01029655
:1024B00028813981820F931F209157023091580251
:1024C0002817390769F4309729F410925A021092AC
:1024D000590202C013821282D0935802C09357024D
:1024E000DF91CF910895A0E0B0E0E9E7F2E10C942C
:1024F0003216EC01CB01209719F40E944C11B8C0A0
:10250000FE01E60FF71F9E0122503109E217F30783
:1025100008F4ACC0D9010D911C911197061717074B
:10252000B8F00530110508F49FC0A80144505109C6
:102530004617570708F498C002501109061B170BDD
:10254000019311936D937C93CF010E94E4118CC091
:102550005B01A01AB10A4E01800E911EA091590292
:10256000B0915A02612C712C60E070E0109709F470
:1025700049C0A815B905C9F5ED90FC901197670100
:1025800042E0C40ED11CCA14DB0478F147018A185A
:102590009B08640142E0C40ED11C1296BC901297B5
:1025A0001396AC91B5E0CB16D10440F0B282A38370
:1025B00091828082D9018D939C9309C00E5F1F4F39
:1025C0000E0D1F1DF90111830083EB2DFA2F6115EC
:1025D000710531F0DB011396FC93EE93129744C022
:1025E000F0935A02E09359023FC06D917C9111978C
:1025F0006616770608F43B01BD0112960D90BC915A
:10260000A02DB4CF609157027091580268157905DA
:10261000E9F468167906D0F4409100015091010167
:102620004115510541F44DB75EB7609104017091B9
:102630000501461B570BE417F507C0F4F093580249
:10264000E0935702F901918380830EC00E944C11E0
:102650007C01009759F0A801BE010E946413CE01CD
:102660000E94E411C70104C0CE0102C080E090E0E6
:10267000CDB7DEB7EEE00C944E161F93FC01992700
:102680008827BC01E89411911032E9F3193010F059
:102690001E30C8F31B3251F01D3249F4689406C055
:1026A0000E948E13610F711D811D911D1191105398
:1026B0001A30B0F33EF490958095709561957F4FF8
:1026C0008F4F9F4F1F910895FB01DC0102C00190C5
:1026D0000D9241505040D8F70895FB01DC01019064
:1026E0000D920020E1F70895FB0151915523A9F0C7
:1026F000BF01DC014D9145174111E1F759F4CD01BE
:102700000190002049F04D9140154111C9F3FB01A2
:102710004111EFCF81E090E001970895592F482FA4
:10272000372F262F660F771F881F991F660F771F79
:10273000881F991F620F731F841F951F660F771FD5
:10274000881F991F08954532510520F4423010F03A
:102750000C94AE13FB011082CB010895BB27FB0143
:102760005527AA27880F991FAA1FA41710F0A41B8A
:1027700083955051B9F7A05DAA3308F0A95DA193E4
:10278000009779F7B111B1931192CB010C941E16F9
:102790006F927F929F92AF92BF92CF92DF92EF9211
:1027A000FF920F931F93CF93DF93CDB7DEB7299797
:1027B0000FB6F894DEBF0FBECDBF6A01B22E102F48
:1027C0000C3320F4FF24F394F00E02C04CE3F42EFB
:1027D0000F2D27E0AE014F5F5F4F0E9446157981B4
:1027E000272F2970213031F0E1FC06C0E0FC06C043
:1027F00060E005C06DE203C06BE201C060E2AE2D97
:10280000A07173FF36C0662311F084E001C083E03D
:102810008B1510F4B81A01C0B12CA1110BC0F60130
:102820008B2D90E2882319F091938150FBCFCB0C34
:10283000D11CB12C662331F0F601608396012F5F25
:102840003F4F6901C6010396E2FE05C02EE4F60182
:10285000208331E404C02EE6F601208331E6318383
:102860002283FC012B2D30E22223F1F13193215000
:10287000FBCF72FF40C0662311F084E001C083E00B
:102880008B1510F4B81A01C0B12CA1110BC0F601C0
:102890008B2D90E2882319F091938150FBCFCB0CC4
:1028A000D11CB12C662331F0F601608396012F5FB5
:1028B0003F4F6901C6010396E2FE07C029E4F60115
:1028C00020832EE4218326E406C029E6F601208336
:1028D0002EE6218326E62283FC012B2D30E22223E3
:1028E00019F031932150FBCFFC01EB0DF11D10824B
:1028F0008EEF9FEFB7C0B1E0611101C0B0E04B2F88
:1029000050E01816190624F49C012F5F3F4F02C0B7
:1029100021E030E0240F351F112329F0412F50E032
:102920004F5F5F4F02C040E050E0420F531F2B2D1E
:1029300030E04217530714F4B41A01C0B12C2E2D05
:10294000287159F4F6012B2D30E2222319F031932E
:102950002150FBCFCB0CD11CB12CBB2331F0F601A5
:10296000608396012F5F3F4F6901A1110BC0F601F3
:102970002B2D30E3222319F031932150FBCFCB0CC8
:10298000D11CB12CF80E0A81372F3071A32E74FFA1
:1029900003C0013309F4FA941F142CF42F2D2930AD
:1029A00018F028E001C021E0682F392F97FF02C0FE
:1029B00060E030E0462F532F612C712C3EE2932EC5
:1029C000BC01621B71099B01DC01A41BB50BE1E09A
:1029D000F0E0EC0FFD1FAE0FBF1FE12EF12CF194C4
:1029E000E194F1084F3FFFEF5F0731F4F601908269
:1029F000B6016F5F7F4F6B01841795074CF024176A
:102A0000350734F4BD01660D771DFB01118101C04E
:102A100010E341505109FFEF6F1A7F0AB6016F5F53
:102A20007F4F4E155F0524F0F60110836B01DACF5E
:102A30004817590739F4063320F4053319F4A11067
:102A400001C011E3F6011083FB018B2D90E2882376
:102A500019F091938150FBCFFB01EB0DF11D10821A
:102A600080E090E029960FB6F894DEBF0FBECDBF90
:102A7000DF91CF911F910F91FF90EF90DF90CF905A
:102A8000BF90AF909F907F906F900895283008F08E
:102A900027E03327DA01990F311D87FD91600096F9
:102AA0006105710539F432602E5F3D9330E32A955C
:102AB000E1F708959F3F30F080387105610509F016
:102AC0003C5F3C5F3D93913008F08068911DDF933F
:102AD000CF931F930F93FF92EF92192F987F9695A4
:102AE000E92F96959695E90FFF27EC5DFE4F992704
:102AF0003327EE24FF24A701E701059008940794EB
:102B000028F4360FE71EF81E491F511D660F771F68
:102B1000881F991F0694A1F70590079428F4E70EE3
:102B2000F81E491F561FC11D770F881F991F661F6A
:102B30000694A1F70590079428F4F80E491F561F34
:102B4000C71FD11D880F991F661F771F0694A1F715
:102B50000590079420F4490F561FC71FD81F990FDF
:102B6000661F771F881F0694A9F784911095177028
:102B700041F0D695C79557954795F794E7941A95E0
:102B8000C1F7EAECF0E068941590159135916591E4
:102B9000959105907FE27395E118F10A430B560B6E
:102BA000C90BD009C0F7E10CF11E431F561FC91F06
:102BB000D01D7EF4703311F48A95E6CFE89401506D
:102BC00030F0080F0AF40027021708F4202F23958D
:102BD000022F7A3328F079E37D932A95E9F710C024
:102BE0007D932A9589F6069497956795379517955D
:102BF0001794E118F10A430B560BC90BD00998F052
:102C000023957E9173957A3308F070E37C932013BB
:102C1000B8F77E9170617D9330F0839571E37D9379
:102C200070E32A95E1F71124EF90FF900F911F9127
:102C3000CF91DF91992787FD90950895DC01FC01E4
:102C4000672F71917723E1F7329704C07C916D93E0
:102C500070836291AE17BF07C8F308952F923F9219
:102C60004F925F926F927F928F929F92AF92BF929C
:102C7000CF92DF92EF92FF920F931F93CF93DF9348
:102C8000CDB7DEB7CA1BDB0B0FB6F894DEBF0FBEA5
:102C9000CDBF09942A88398848885F846E847D84F2
:102CA0008C849B84AA84B984C884DF80EE80FD80F4
:102CB0000C811B81AA81B981CE0FD11D0FB6F8946A
:0E2CC000DEBF0FBECDBFED010895F894FFCF2B
:102CCE0000005B028000010000005041204C657640
:102CDE00656C203D200052656365697665722049FA
:102CEE006E697469616C69736564002F00436F6D62
:102CFE006D756E69636174696F6E207261746520A3
:102D0E003D2000487A0052656164790000000000A1
:102D1E00BE0B3A0D400B590B4B0B9C0B0D0A006E64
:0E2D2E00616E00696E66006F7666002E000012
:00000001FF
