:100000000C9404010C942C010C942C010C942C01E4
:100010000C942C010C942C010C942C010C942C01AC
:100020000C942C010C942C010C942C010C942C019C
:100030000C942C010C942C010C942C010C942C018C
:100040000C9413060C942C010C94E1050C94BB0544
:100050000C942C010C942C010C942C010C942C016C
:100060000C942C010C942C010000000800020100EB
:100070000003040700000000000000002A2A2A20D4
:1000800050524553532027542720746F20626567D0
:10009000696E207472616E736D697474696E672025
:1000A000746F20746865206F74686572206E6F6469
:1000B0006500524632342F6578616D706C65732F20
:1000C00047657474696E6753746172746564002A5D
:1000D0002A2A204348414E47494E4720544F205238
:1000E00045434549564520524F4C45202D2D205023
:1000F000524553532027542720544F2053574954D7
:100100004348204241434B002A2A2A204348414E7B
:1001100047494E4720544F205452414E534D495465
:1001200020524F4C45202D2D20505245535320270F
:10013000522720544F2053574954434820424143AB
:100140004B0053656E7420726573706F6E7365201B
:1001500000206D6963726F7365636F6E6473002C4A
:1001600020526F756E642D747269702064656C61C5
:100170007920002C20476F7420726573706F6E7346
:1001800065200053656E7420004661696C65642CBF
:1001900020726573706F6E73652074696D6564207D
:1001A0006F75742E006661696C6564004E6F772010
:1001B00073656E64696E670000000000250028000A
:1001C0002B0000000000240027002A00040404047F
:1001D00004040404020202020202030303030303F1
:1001E00001020408102040800102040810200102CE
:1001F000040810201112131415160A0B0C0D0E0F03
:100200000001020304055D0611241FBECFEFD8E0F4
:10021000DEBFCDBF21E0A2E2B1E001C01D92A23E4F
:10022000B207E1F711E0A0E0B1E0E2E1F2E102C0E3
:1002300005900D92A232B107D9F711E0C4E0D1E0E8
:1002400004C02197FE010E94F408C330D107C9F70A
:100250000E94A3060C9407090C94000090E0FC0196
:10026000E052FE4F2491FC01E453FE4F8491882319
:1002700099F090E0880F991FFC01EE53FE4FA59175
:10028000B491FC01E854FE4F859194918FB7F89496
:10029000EC91E22BEC938FBF08950F931F93CF93B4
:1002A000DF938C01C0E0D0E0F801EC0FFD1F6491FA
:1002B000662371F0E0912D01F0912E010190F08103
:1002C000E02D8DE291E00995892B11F02196ECCF7C
:1002D000CE01DF91CF911F910F910895CF92DF92C0
:1002E000EF92FF920F931F93CF93DF936C017A01EC
:1002F0008B01C0E0D0E0CE15DF0589F0D8016D910B
:100300008D01D601ED91FC910190F081E02DC601A7
:100310000995892B11F47E0102C02196ECCFC7010B
:10032000DF91CF911F910F91FF90EF90DF90CF90D1
:100330000895089580E090E00895FC01538D448D68
:10034000252F30E0842F90E0821B930B541710F080
:10035000CF96089501970895FC01918D828D98178D
:1003600061F0828DDF01A80FB11D5D968C91928D99
:100370009F5F9F73928F90E008958FEF9FEF089596
:10038000FC01918D828D981731F0828DE80FF11D5F
:10039000858D90E008958FEF9FEF0895FC01918D7A
:1003A000228D892F90E0805C9F4F821B91098F7373
:1003B000992708958DE291E00E94CE0121E0892BDA
:1003C00009F420E0822F0895FC01848DDF01A80F3D
:1003D000B11DA35ABF4F2C91848D90E001968F736D
:1003E0009927848FA689B7892C93A089B1898C918C
:1003F00080648C93938D848D981306C00288F38952
:10040000E02D80818F7D80830895EF92FF920F937E
:100410001F93CF93DF93EC0181E0888F9B8D8C8DB0
:10042000981305C0E889F989808185FD24C0F62EDE
:100430000B8D10E00F5F1F4F0F731127E02E8C8D77
:10044000E8120CC00FB607FCFACFE889F989808161
:1004500085FFF5CFCE010E94E401F1CF8B8DFE0127
:10046000E80FF11DE35AFF4FF0820B8FEA89FB89F9
:100470008081806207C0EE89FF896083E889F989FD
:1004800080818064808381E090E0DF91CF911F9133
:100490000F91FF90EF900895CF93DF93EC01888D3B
:1004A0008823C9F0EA89FB89808185FD05C0A88978
:1004B000B9898C9186FD0FC00FB607FCF5CF8081FE
:1004C00085FFF2CFA889B9898C9185FFEDCFCE0148
:1004D0000E94E401E7CFDF91CF91089580E090E0A2
:1004E000892B29F00E94DA0181110C9400000895F3
:1004F00090E0FC01E859FF4F3491FC01E052FE4FBF
:100500002491FC01E453FE4FE491EE2309F43BC037
:10051000332339F1333091F038F43130A9F03230EF
:1005200001F584B58F7D12C0373091F03830A1F0DD
:100530003430B9F4809180008F7D03C080918000B9
:100540008F77809380000DC084B58F7784BD09C0FC
:100550008091B0008F7703C08091B0008F7D809331
:10056000B000F0E0EE0FFF1FE854FE4FA591B491EC
:100570008FB7F894EC91611103C020952E2301C030
:100580002E2B2C938FBF08952091CA013091CB015F
:100590004091CC015091CD012417350721F0682FEF
:1005A000822F0C94780208958230910538F0880FDC
:1005B000991F880F991F05970197F1F708953FB785
:1005C000F8948091230190912401A0912501B0918C
:1005D000260126B5A89B05C02F3F19F00196A11D45
:1005E000B11D3FBFBA2FA92F982F8827820F911DC9
:1005F000A11DB11DBC01CD0142E0660F771F881F10
:10060000991F4A95D1F708958F929F92AF92BF920A
:10061000CF92DF92EF92FF926B017C010E94DF028A
:100620004B015C01C114D104E104F104F1F00E941A
:10063000DF02DC01CB0188199909AA09BB09883EB0
:100640009340A105B10570F321E0C21AD108E10879
:10065000F10888EE880E83E0981EA11CB11CC1141D
:10066000D104E104F10419F7DDCFFF90EF90DF90A2
:10067000CF90BF90AF909F908F9008958EBD000057
:100680000DB407FEFDCF8EB50895CF93DF939CB5D3
:100690009F7D9CBD9CB5937F9CBD9CB59C7F9CBD64
:1006A0009DB591609DBDCAECD1E0682F8A810E9402
:1006B00078028C899D89DF91CF910C94D40281E0DE
:1006C0000C94450380E00C944503CF93DF931F9275
:1006D000CDB7DEB70E94620381EE0E943E0389839C
:1006E0000E945F0389810F90DF91CF910895CF938E
:1006F000DF931F92CDB7DEB789830E9462038981A1
:100700008F710E943E038FEF0E943E0389830E94F7
:100710005F0389810F90DF91CF9108951F93CF934D
:10072000DF9300D0CDB7DEB76A8389830E9462036E
:1007300089818F7180620E943E03182F6A81862F03
:100740000E943E030E945F03812F0F900F90DF9164
:10075000CF911F91089580E00E94770381FD0BC027
:10076000682F626080E00E948E0365E070E080E0A8
:1007700090E00C940403089580E00E94C4028091EC
:10078000DA019091DB010E94D4028DE10E9477038F
:1007900081FF08C08091DA019091DB010E94D402B0
:1007A0000E94650380E00E947703682F6E7F80E0DF
:1007B0000E948E0382E00E947703E0E0F2E0E49181
:1007C00061E070E001C0660FEA95EAF7682B82E00D
:1007D0000C948E03EF92FF920F931F93CF93DF93AE
:1007E00000D01F92CDB7DEB7162F4A837B83898353
:1007F0000E94620389818F7180620E943E03082FEC
:10080000E12E7B81F72E4A81140F1E1531F0F7017E
:1008100081917F010E943E03F8CF0E945F03802FE9
:100820000F900F900F90DF91CF911F910F91FF903C
:10083000EF9008950E94AB0380E00E947703682F39
:10084000616080E00E948E0360E787E00E948E0373
:1008500081E00E94C4028091D301882341F040913D
:10086000D80163ED71E08AE00E94EA0312C082E0E1
:100870000E947703E0E0F2E0E49121E030E001C083
:10088000220FEA95EAF72095622F682382E00E9402
:100890008E038DE10E94770381FD0C94650308951A
:1008A0000F931F93CF93DF938C01CAECD1E04E8559
:1008B000BC018AE00E94EA034E85B80180E10E94F3
:1008C000EA036F8181E1DF91CF911F910F910C9429
:1008D0008E03CF92DF92EF92FF920F931F93CF93ED
:1008E000DF931F92CDB7DEB7F82E2091D101D22E23
:1008F000253010F084E0D82E8091D201811103C000
:10090000E22EED1801C0E12C99830E94620380EA77
:100910000E943E030F2D9981192FDA94FFEFDF1605
:1009200031F0F80181918F010E943E03F6CFEE2055
:1009300029F080E00E943E03EA94F9CF0E945F0311
:1009400081E00E94C4028FB7F894C0902901D09032
:100950002A01E0902B01F0902C018FBF0E946203CE
:100960008FEF0E943E0389830E945F038981807319
:10097000C1F42FB7F8948091290190912A01A09198
:100980002B01B0912C012FBF8C199D09AE09BF0915
:1009900080369105A105B10508F381E08093D90166
:1009A0000BC080E00E94C40260E787E00E948E03D3
:1009B00084FF04C00E94650380E001C081E00F90C5
:1009C000DF91CF911F910F91FF90EF90DF90CF902B
:1009D0000895CF92DF92EF92FF920F931F93CF93E0
:1009E000DF931F92CDB7DEB7E82E2091D1012430DE
:1009F00010F4D22E02C084E0D82E8091D201811151
:100A000003C0C22ECD1801C0C12C99830E9462037D
:100A100081E60E943E03F82E0E2D9981192FDA945B
:100A2000FFEFDF1639F08FEF0E943E03F80181934C
:100A30008F01F5CFCC2029F08FEF0E943E03CA949E
:100A4000F9CF0E945F038F2D0F90DF91CF911F91FF
:100A50000F91FF90EF90DF90CF900895CF93DF93A9
:100A6000EBEFF1E0E491CAECD1E04E85BC018E2FB2
:100A70000E94EA03E5EFF1E084916F810E948E030A
:100A800082E00E947703E1E0F2E0E49161E070E04F
:100A900001C0660FEA95EAF7682B82E0DF91CF91FB
:100AA0000C948E0387E10E947703809581700895EE
:100AB000009769F0FC0101900020E9F73197AF0140
:100AC000481B590BBC018DE291E00C946E0180E053
:100AD00090E00895CF93DF930E944D01EC018EE1E9
:100AE00091E00E9458058C0F9D1FDF91CF910895D2
:100AF0008F929F92AF92BF920F931F93CF93DF93EA
:100B0000CDB7DEB7A1970FB6F894DEBF0FBECDBF4D
:100B100019A2423008F44AE08E010F5D1F4F842E67
:100B2000912CA12CB12CA50194010E94D208E62F92
:100B3000B901CA0101501109EA3014F4E05D01C0A5
:100B4000E95CD801EC93232B242B252B61F7C801FA
:100B50000E945805A1960FB6F894DEBF0FBECDBF18
:100B6000DF91CF911F910F91BF90AF909F908F9089
:100B700008950E94FA081F920F920FB60F92112447
:100B80002F933F934F935F936F937F938F939F9395
:100B9000AF93BF93EF93FF938DE291E00E94E40146
:100BA000FF91EF91BF91AF919F918F917F916F9145
:100BB0005F914F913F912F910F900FBE0F901F901B
:100BC00018951F920F920FB60F9211242F938F93A7
:100BD0009F93EF93FF93E0913D01F0913E0180815F
:100BE000E0914301F091440182FD12C09081809117
:100BF00046018F5F8F7320914701821751F0E0917A
:100C00004601F0E0E35DFE4F958F8093460101C001
:100C10008081FF91EF919F918F912F910F900FBE47
:100C20000F901F9018951F920F920FB60F921124DC
:100C30002F933F938F939F93AF93BF9380912901FD
:100C400090912A01A0912B01B0912C0130912201A9
:100C500023E0230F2D3720F40196A11DB11D05C0FF
:100C600026E8230F0296A11DB11D20932201809337
:100C7000290190932A01A0932B01B0932C0180911C
:100C8000230190912401A0912501B09126010196A4
:100C9000A11DB11D8093230190932401A0932501F0
:100CA000B0932601BF91AF919F918F913F912F916A
:100CB0000F900FBE0F901F901895EDE2F1E0138298
:100CC000128288EE93E0A0E0B0E084839583A6834F
:100CD000B78380E191E09183808385EC90E09587F4
:100CE000848784EC90E09787868780EC90E0918BF6
:100CF000808B81EC90E0938B828B82EC90E0958BE3
:100D0000848B86EC90E0978B868B118E128E138EDF
:100D1000148EEAECF1E089E090E0918380838AE030
:100D200090E093838283168280E28783108685E039
:100D3000868785E090E0A0E0B0E0848B958BA68B61
:100D4000B78B11860895CF93DF93CDB7DEB7289781
:100D50000FB6F894DEBF0FBECDBF789484B5826025
:100D600084BD84B5816084BD85B5826085BD85B54F
:100D7000816085BD80916E00816080936E001092CD
:100D80008100809181008260809381008091810048
:100D900081608093810080918000816080938000D9
:100DA0008091B10084608093B1008091B000816037
:100DB0008093B00080917A00846080937A00809163
:100DC0007A00826080937A0080917A0081608093BB
:100DD0007A0080917A00806880937A001092C10036
:100DE000E0913D01F0913E0182E08083E091390184
:100DF000F0913A011082E0913B01F0913C0180E1D9
:100E0000808310924501E0914101F091420186E01A
:100E10008083E0913F01F091400180818061808377
:100E2000E0913F01F0914001808188608083E091F2
:100E30003F01F0914001808180688083E0913F0113
:100E4000F091400180818F7D808382EB90E00E9451
:100E50006A058CE790E00E946A058091CA01909132
:100E6000CB012091CC013091CD018217930711F075
:100E70000E942E018091CC019091CD012091CA0158
:100E80003091CB012817390711F00E942E011FB7AE
:100E9000F89480912701811124C0E6EDF1E084915E
:100EA000EAEEF1E09491E82FF0E0EE0FFF1FEE5331
:100EB000FE4FA591B491EC91E92321F461E08AE021
:100EC0000E9478028AE00E942E018CB580618CBD60
:100ED0008CB580648CBD8DE00E942E018BE00E9459
:100EE0002E01809127018F5F809327011FBF80E033
:100EF0000E94C40281E00E94450365E070E080E04A
:100F000090E00E9404036CE080E00E948E036FE595
:100F100084E00E948E0386E00E947703877D182F6D
:100F200010628BE990E0A0E0B0E08093DA0190934A
:100F3000DB01A093DC01B093DD01612F86E00E940C
:100F40008E0386E00E947703811709F427C186E0AB
:100F50000E94770386E00E94770345E550E060E059
:100F600070E04093DA015093DB016093DC017093F1
:100F7000DD01682F677D86E00E948E0386E00E9477
:100F800077030E94620380E50E943E0383E70E948C
:100F90003E030E945F0360E08DE10E948E0360E0EB
:100FA0008CE10E948E031092D20160E787E00E94DC
:100FB0008E036CE485E00E948E030E94620382EE41
:100FC0000E943E030E945F030E9465030E94AB03E0
:100FD00080E00E947703682F6E7F80E00E948E037E
:100FE00086E00E947703887F682F636086E00E9416
:100FF0008E0380E091E00E94500486E091E00E9420
:101000002E050E941A0411E080912801882309F41A
:101010006FC00E94BC038CEA91E00E946A050E94A6
:10102000DF026D837E838F839887CE0105960E94B1
:101030006904811104C085EA91E00E946A050E945A
:101040001A040E94DF026B017C010E94520581118B
:1010500010C00E94DF02DC01CB018C199D09AE0992
:10106000BF0981349D40A340B10578F389E891E040
:1010700037C0CE0101960E94E90460E787E00E9434
:101080008E030E94DF026B017C0183E891E00E94E5
:101090004D016D817E818F8198854AE00E9478059F
:1010A00083E791E00E944D0169817A818B819C8167
:1010B0004AE00E9478058FE591E00E944D018D8104
:1010C0009E81AF81B885A7019601281B390B4A0B79
:1010D0005B0BCA01B9014AE00E94780581E591E005
:1010E0000E946A0568EE73E080E090E00E940403CD
:1010F00080912801811128C00E945205882321F186
:101100000E945205882349F0CE0101960E94E9040D
:1011100060E787E00E948E03F3CF0E94BC03CE01FC
:1011200001960E9469040E941A0482E491E00E94E0
:101130004D0169817A818B819C814AE00E9478050A
:101140008EE191E00E9458058DE291E00E94CE016F
:10115000892B09F18DE291E00E94AC010E94FF0809
:10116000843559F480912801811115C088E091E0FF
:101170000E946A05109328010EC0823561F48091A7
:101180002801882341F08FEC90E00E946A051092BC
:1011900028010E941A040E946E0236CF81E08093DB
:1011A000D001D5CEA1E21A2EAA1BBB1BFD010DC09A
:1011B000AA1FBB1FEE1FFF1FA217B307E407F50707
:1011C00020F0A21BB30BE40BF50B661F771F881FE3
:1011D000991F1A9469F760957095809590959B0179
:1011E000AC01BD01CF010895EE0FFF1F0590F491F2
:1011F000E02D099481E090E0F8940C940709911196
:10120000089581568A5108F4805285580895F894BB
:02121000FFCF0E
:10121200314E6F646500324E6F646500000000005D
:1012220005026E019D014C02CE01AC01C0010D0A06
:021232000000BA
:107800000C94343C0C94513C0C94513C0C94513CE1
:107810000C94513C0C94513C0C94513C0C94513CB4
:107820000C94513C0C94513C0C94513C0C94513CA4
:107830000C94513C0C94513C0C94513C0C94513C94
:107840000C94513C0C94513C0C94513C0C94513C84
:107850000C94513C0C94513C0C94513C0C94513C74
:107860000C94513C0C94513C11241FBECFEFD8E036
:10787000DEBFCDBF11E0A0E0B1E0ECE9FFE702C060
:1078800005900D92A230B107D9F712E0A2E0B1E065
:1078900001C01D92AD30B107E1F70E942D3D0C945F
:1078A000CC3F0C94003C982F959595959595959582
:1078B000905D8F708A307CF0282F295A8091C0000B
:1078C00085FFFCCF9093C6008091C00085FFFCCF60
:1078D0002093C6000895282F205DF0CF982F809127
:1078E000C00085FFFCCF9093C6000895EF92FF92F1
:1078F0000F931F93EE24FF2487018091C00087FD22
:1079000017C00894E11CF11C011D111D81E4E8164B
:1079100082E4F8068FE0080780E0180770F3E09132
:107920000401F091050109958091C00087FFE9CF1E
:107930008091C6001F910F91FF90EF9008950E94D3
:10794000763C982F8091C00085FFFCCF9093C600B5
:1079500091362CF490330CF09053892F089597555D
:10796000892F08951F930E949F3C182F0E949F3CCF
:107970001295107F810F1F9108951F93182F882350
:1079800021F00E94763C1150E1F71F9108951F935A
:10799000182F0E94763C803249F0809103018F5F5E
:1079A000809303018530C1F01F9108958091C0003C
:1079B00085FFFCCF84E18093C6008091C00085FFE5
:1079C000FCCF1093C6008091C00085FFFCCF80E102
:1079D0008093C6001F910895E0910401F091050184
:1079E00009951F9108950E94763C803241F0809164
:1079F00003018F5F80930301853081F008958091AA
:107A0000C00085FFFCCF84E18093C6008091C00058
:107A100085FFFCCF80E18093C6000895E0910401CA
:107A2000F09105010995089540E951E08823A1F0FE
:107A30002D9A28EE33E0FA013197F1F721503040CA
:107A4000D1F72D9828EE33E0FA013197F1F7215064
:107A50003040D1F7815061F708953F924F925F9285
:107A60006F927F928F929F92AF92BF92CF92DF924E
:107A7000EF92FF920F931F93CF93DF93000080E16B
:107A80008093C4001092C50088E18093C10086E015
:107A90008093C2005098589A259A81E00E94143D24
:107AA00024E1F22E9EE1E92E85E9D82E0FE0C02ECA
:107AB00010E1B12EAA24A394B1E49B2EA6E58A2E50
:107AC000F2E57F2EE0E26E2E79E4572E63E5462E36
:107AD00050E5352E0E94763C8033B1F18133B9F107
:107AE000803409F46FC0813409F476C0823409F41B
:107AF00085C0853409F488C0803531F1823521F1A3
:107B0000813511F1853509F485C0863509F48DC0BC
:107B1000843609F496C0843709F403C1853709F423
:107B200072C1863709F466C0809103018F5F80932C
:107B30000301853079F6E0910401F0910501099582
:107B40000E94763C803351F60E94F33CC3CF0E94E2
:107B5000763C803249F78091C00085FFFCCFF092DF
:107B6000C6008091C00085FFFCCF9092C600809136
:107B7000C00085FFFCCF8092C6008091C00085FFC9
:107B8000FCCF7092C6008091C00085FFFCCF609250
:107B9000C6008091C00085FFFCCF5092C600809146
:107BA000C00085FFFCCF4092C6008091C00085FFD9
:107BB000FCCF3092C6008091C00085FFFCCFB09210
:107BC000C60088CF0E94763C863808F4BDCF0E945C
:107BD000763C0E94F33C7ECF0E94763C803809F4CC
:107BE0009CC0813809F40BC1823809F43CC1883942
:107BF00009F48FC080E00E94C73C6CCF84E10E94F2
:107C0000BD3C0E94F33C66CF85E00E94BD3C0E94D3
:107C1000F33C60CF0E94763C809306010E94763C44
:107C2000809307010E94F33C55CF0E94763C80333D
:107C300009F41DC183E00E94BD3C80E00E94C73C66
:107C400049CF0E94763C809309020E94763C809343
:107C5000080280910C028E7F80930C020E94763C79
:107C6000853409F415C18091080290910902892B8D
:107C700089F000E010E00E94763CF801E85FFE4FDA
:107C800080830F5F1F4F80910802909109020817AF
:107C9000190788F30E94763C803209F045CF809125
:107CA0000C0280FF01C16091060170910701660F0F
:107CB000771F7093070160930601A0910802B091AD
:107CC00009021097C9F0E8E0F1E09B01AD014E0F09
:107CD0005F1FF999FECF32BD21BD819180BDFA9A17
:107CE000F99A2F5F3F4FE417F50799F76A0F7B1F4B
:107CF00070930701609306018091C00085FFFCCF5F
:107D0000F092C6008091C00085FFFCCFB092C60003
:107D1000E1CE83E00E94C73CDDCE82E00E94C73CFA
:107D2000D9CE0E94763C809309020E94763C8093D3
:107D300008028091060190910701880F991F909386
:107D40000701809306010E94763C853409F4A6C0A1
:107D500080910C028E7F80930C020E94763C8032D0
:107D600009F0B8CE8091C00085FFFCCFF092C6002C
:107D7000609108027091090261157105B9F140E046
:107D800050E080910C02A82FA170B82FB27011C0E2
:107D9000BB2309F45CC0E0910601F0910701319624
:107DA000F0930701E09306014F5F5F4F46175707B7
:107DB000E8F4AA2369F3F999FECF209106013091E6
:107DC000070132BD21BDF89A90B58091C00085FFB2
:107DD000FCCF9093C6002F5F3F4F30930701209355
:107DE00006014F5F5F4F4617570718F38091C00099
:107DF00085FDE5CE8091C00085FFF8CFE0CE81E023
:107E00000E94C73C67CE0E94763C803209F08CCE3F
:107E10008091C00085FFFCCFF092C6008091C00029
:107E200085FFFCCFE092C6008091C00085FFFCCFAB
:107E3000D092C6008091C00085FFFCCFC092C600E2
:107E40008091C00085FFFCCFB092C60043CEE09188
:107E50000601F091070194918091C00085FFFCCF4D
:107E60009093C6009CCF80E10E94C73C33CE0E9415
:107E7000763C0E94763C182F0E94763C112309F430
:107E800083C0113009F484C08FE00E94C73C22CE29
:107E900080910C02816080930C02E5CE80910C02EF
:107EA000816080930C0259CF809107018823880F4D
:107EB000880B8A2180930B02809106019091070123
:107EC000880F991F90930701809306018091080203
:107ED00080FF09C080910802909109020196909359
:107EE000090280930802F894F999FECF1127E091D6
:107EF0000601F0910701C8E0D1E08091080290915D
:107F00000902103091F40091570001700130D9F34B
:107F100003E000935700E89500915700017001308D
:107F2000D9F301E100935700E89509901990009169
:107F3000570001700130D9F301E000935700E89534
:107F40001395103498F011270091570001700130FB
:107F5000D9F305E000935700E895009157000170B0
:107F60000130D9F301E100935700E895329602976A
:107F700009F0C7CF103011F00296E5CF112480919F
:107F8000C00085FFB9CEBCCE8EE10E94C73CA2CD19
:0C7F900085E90E94C73C9ECDF894FFCF0D
:027F9C00800063
:040000030000780081
:00000001FF